{
    "_format": "hh-sol-artifact-1",
    "contractName": "DreamProxyFactory",
    "sourceName": "contracts/proxies/DreamProxyFactory.sol",
    "abi": [
        {
            "inputs": [
                {
                    "internalType": "address",
                    "name": "_implementationContract",
                    "type": "address"
                }
            ],
            "stateMutability": "nonpayable",
            "type": "constructor"
        },
        {
            "inputs": [],
            "name": "AmountHigherThanBalance",
            "type": "error"
        },
        {
            "inputs": [],
            "name": "Forbidden",
            "type": "error"
        },
        {
            "anonymous": false,
            "inputs": [
                {
                    "indexed": false,
                    "internalType": "address",
                    "name": "proxy",
                    "type": "address"
                },
                {
                    "indexed": false,
                    "internalType": "address",
                    "name": "dreamOwner",
                    "type": "address"
                }
            ],
            "name": "ProxyCreated",
            "type": "event"
        },
        {
            "anonymous": false,
            "inputs": [
                {
                    "indexed": false,
                    "internalType": "address",
                    "name": "proxy",
                    "type": "address"
                },
                {
                    "indexed": false,
                    "internalType": "uint256",
                    "name": "amount",
                    "type": "uint256"
                }
            ],
            "name": "ReceivedFees",
            "type": "event"
        },
        {
            "inputs": [
                {
                    "internalType": "address",
                    "name": "_owner",
                    "type": "address"
                },
                {
                    "internalType": "uint256",
                    "name": "_targetAmount",
                    "type": "uint256"
                },
                {
                    "internalType": "uint256",
                    "name": "_deadlineTimestamp",
                    "type": "uint256"
                }
            ],
            "name": "deployClone",
            "outputs": [],
            "stateMutability": "nonpayable",
            "type": "function"
        },
        {
            "inputs": [],
            "name": "getBalance",
            "outputs": [
                {
                    "internalType": "uint256",
                    "name": "",
                    "type": "uint256"
                }
            ],
            "stateMutability": "view",
            "type": "function"
        },
        {
            "inputs": [],
            "name": "getProxies",
            "outputs": [
                {
                    "internalType": "address[]",
                    "name": "",
                    "type": "address[]"
                }
            ],
            "stateMutability": "view",
            "type": "function"
        },
        {
            "inputs": [],
            "name": "implementationContract",
            "outputs": [
                {
                    "internalType": "address",
                    "name": "",
                    "type": "address"
                }
            ],
            "stateMutability": "view",
            "type": "function"
        },
        {
            "inputs": [],
            "name": "owner",
            "outputs": [
                {
                    "internalType": "address",
                    "name": "",
                    "type": "address"
                }
            ],
            "stateMutability": "view",
            "type": "function"
        },
        {
            "inputs": [
                {
                    "internalType": "uint256",
                    "name": "",
                    "type": "uint256"
                }
            ],
            "name": "proxies",
            "outputs": [
                {
                    "internalType": "address",
                    "name": "",
                    "type": "address"
                }
            ],
            "stateMutability": "view",
            "type": "function"
        },
        {
            "inputs": [
                {
                    "internalType": "address",
                    "name": "_implementationContract",
                    "type": "address"
                }
            ],
            "name": "setImplementationContract",
            "outputs": [],
            "stateMutability": "nonpayable",
            "type": "function"
        },
        {
            "inputs": [
                {
                    "internalType": "uint256",
                    "name": "amount",
                    "type": "uint256"
                },
                {
                    "internalType": "address",
                    "name": "to",
                    "type": "address"
                }
            ],
            "name": "withdraw",
            "outputs": [],
            "stateMutability": "nonpayable",
            "type": "function"
        },
        {
            "stateMutability": "payable",
            "type": "receive"
        }
    ],
    "bytecode": "0x608060405234801561001057600080fd5b50604051610c18380380610c188339818101604052810190610032919061011d565b33600160006101000a81548173ffffffffffffffffffffffffffffffffffffffff021916908373ffffffffffffffffffffffffffffffffffffffff16021790555080600260006101000a81548173ffffffffffffffffffffffffffffffffffffffff021916908373ffffffffffffffffffffffffffffffffffffffff1602179055505061014a565b600080fd5b600073ffffffffffffffffffffffffffffffffffffffff82169050919050565b60006100ea826100bf565b9050919050565b6100fa816100df565b811461010557600080fd5b50565b600081519050610117816100f1565b92915050565b600060208284031215610133576101326100ba565b5b600061014184828501610108565b91505092915050565b610abf806101596000396000f3fe60806040526004361061007e5760003560e01c80638da5cb5b1161004e5780638da5cb5b1461016b57806399e7d05614610196578063abd90f85146101c1578063e3142bcd146101fe576100be565b8062f714ce146100c357806312065fe0146100ec57806345ce0a2014610117578063729a60c014610140576100be565b366100be577ffe2262366ee4064cf54b0bbd6f16da2a975546e97b4dac8b7e94485d295bbd6133346040516100b49291906107a0565b60405180910390a1005b600080fd5b3480156100cf57600080fd5b506100ea60048036038101906100e59190610826565b610227565b005b3480156100f857600080fd5b5061010161033a565b60405161010e9190610866565b60405180910390f35b34801561012357600080fd5b5061013e60048036038101906101399190610881565b610342565b005b34801561014c57600080fd5b50610155610562565b6040516101629190610992565b60405180910390f35b34801561017757600080fd5b506101806105f0565b60405161018d91906109b4565b60405180910390f35b3480156101a257600080fd5b506101ab610616565b6040516101b891906109b4565b60405180910390f35b3480156101cd57600080fd5b506101e860048036038101906101e391906109cf565b61063c565b6040516101f591906109b4565b60405180910390f35b34801561020a57600080fd5b50610225600480360381019061022091906109fc565b61067b565b005b600160009054906101000a900473ffffffffffffffffffffffffffffffffffffffff1673ffffffffffffffffffffffffffffffffffffffff163373ffffffffffffffffffffffffffffffffffffffff16146102ae576040517fee90c46800000000000000000000000000000000000000000000000000000000815260040160405180910390fd5b6102b661033a565b8211156102ef576040517f4688be2600000000000000000000000000000000000000000000000000000000815260040160405180910390fd5b8073ffffffffffffffffffffffffffffffffffffffff166108fc839081150290604051600060405180830381858888f19350505050158015610335573d6000803e3d6000fd5b505050565b600047905090565b600160009054906101000a900473ffffffffffffffffffffffffffffffffffffffff1673ffffffffffffffffffffffffffffffffffffffff163373ffffffffffffffffffffffffffffffffffffffff16146103c9576040517fee90c46800000000000000000000000000000000000000000000000000000000815260040160405180910390fd5b6000600260009054906101000a900473ffffffffffffffffffffffffffffffffffffffff1660601b905060006040517f3d602d80600a3d3981f3363d3d373d3d3d363d7300000000000000000000000081528260148201527f5af43d82803e903d91602b57fd5bf3000000000000000000000000000000000060288201526037816000f09150508073ffffffffffffffffffffffffffffffffffffffff16637a1ac61e8686866040518463ffffffff1660e01b815260040161048d93929190610a29565b600060405180830381600087803b1580156104a757600080fd5b505af11580156104bb573d6000803e3d6000fd5b505050506000819080600181540180825580915050600190039060005260206000200160009091909190916101000a81548173ffffffffffffffffffffffffffffffffffffffff021916908373ffffffffffffffffffffffffffffffffffffffff1602179055507f9678a1e87ca9f1a37dc659a97b39d812d98cd236947e1b53b3d0d6fd346acb6e8186604051610553929190610a60565b60405180910390a15050505050565b606060008054806020026020016040519081016040528092919081815260200182805480156105e657602002820191906000526020600020905b8160009054906101000a900473ffffffffffffffffffffffffffffffffffffffff1673ffffffffffffffffffffffffffffffffffffffff168152602001906001019080831161059c575b5050505050905090565b600160009054906101000a900473ffffffffffffffffffffffffffffffffffffffff1681565b600260009054906101000a900473ffffffffffffffffffffffffffffffffffffffff1681565b6000818154811061064c57600080fd5b906000526020600020016000915054906101000a900473ffffffffffffffffffffffffffffffffffffffff1681565b600160009054906101000a900473ffffffffffffffffffffffffffffffffffffffff1673ffffffffffffffffffffffffffffffffffffffff163373ffffffffffffffffffffffffffffffffffffffff1614610702576040517fee90c46800000000000000000000000000000000000000000000000000000000815260040160405180910390fd5b80600260006101000a81548173ffffffffffffffffffffffffffffffffffffffff021916908373ffffffffffffffffffffffffffffffffffffffff16021790555050565b600073ffffffffffffffffffffffffffffffffffffffff82169050919050565b600061077182610746565b9050919050565b61078181610766565b82525050565b6000819050919050565b61079a81610787565b82525050565b60006040820190506107b56000830185610778565b6107c26020830184610791565b9392505050565b600080fd5b6107d781610787565b81146107e257600080fd5b50565b6000813590506107f4816107ce565b92915050565b61080381610766565b811461080e57600080fd5b50565b600081359050610820816107fa565b92915050565b6000806040838503121561083d5761083c6107c9565b5b600061084b858286016107e5565b925050602061085c85828601610811565b9150509250929050565b600060208201905061087b6000830184610791565b92915050565b60008060006060848603121561089a576108996107c9565b5b60006108a886828701610811565b93505060206108b9868287016107e5565b92505060406108ca868287016107e5565b9150509250925092565b600081519050919050565b600082825260208201905092915050565b6000819050602082019050919050565b61090981610766565b82525050565b600061091b8383610900565b60208301905092915050565b6000602082019050919050565b600061093f826108d4565b61094981856108df565b9350610954836108f0565b8060005b8381101561098557815161096c888261090f565b975061097783610927565b925050600181019050610958565b5085935050505092915050565b600060208201905081810360008301526109ac8184610934565b905092915050565b60006020820190506109c96000830184610778565b92915050565b6000602082840312156109e5576109e46107c9565b5b60006109f3848285016107e5565b91505092915050565b600060208284031215610a1257610a116107c9565b5b6000610a2084828501610811565b91505092915050565b6000606082019050610a3e6000830186610778565b610a4b6020830185610791565b610a586040830184610791565b949350505050565b6000604082019050610a756000830185610778565b610a826020830184610778565b939250505056fea2646970667358221220e337156c124efd735be46c283b0c8c63daea436a373fa72e3d18fcac95f6ee6364736f6c63430008180033",
    "linkReferences": {},
    "deployedLinkReferences": {}
}