{
  "_format": "hh-sol-artifact-1",
  "contractName": "TestContract",
  "sourceName": "contracts/tests/TestContract.sol",
  "abi": [
    {
      "inputs": [
        {
          "internalType": "address",
          "name": "_owner",
          "type": "address"
        },
        {
          "internalType": "uint256",
          "name": "_targetAmount",
          "type": "uint256"
        },
        {
          "internalType": "uint256",
          "name": "_deadlineTimestamp",
          "type": "uint256"
        }
      ],
      "name": "initialize",
      "outputs": [],
      "stateMutability": "nonpayable",
      "type": "function"
    },
    {
      "inputs": [
        {
          "internalType": "uint256",
          "name": "_value",
          "type": "uint256"
        }
      ],
      "name": "setValue",
      "outputs": [],
      "stateMutability": "nonpayable",
      "type": "function"
    },
    {
      "inputs": [],
      "name": "value",
      "outputs": [
        {
          "internalType": "uint256",
          "name": "",
          "type": "uint256"
        }
      ],
      "stateMutability": "view",
      "type": "function"
    }
  ],
  "bytecode": "0x608060405234801561001057600080fd5b5061023d806100206000396000f3fe608060405234801561001057600080fd5b50600436106100415760003560e01c80633fa4f2451461004657806355241077146100645780637a1ac61e14610080575b600080fd5b61004e61009c565b60405161005b91906100dd565b60405180910390f35b61007e60048036038101906100799190610129565b6100a2565b005b61009a600480360381019061009591906101b4565b6100ac565b005b60005481565b8060008190555050565b60008081905550600092506000915060009050505050565b6000819050919050565b6100d7816100c4565b82525050565b60006020820190506100f260008301846100ce565b92915050565b600080fd5b610106816100c4565b811461011157600080fd5b50565b600081359050610123816100fd565b92915050565b60006020828403121561013f5761013e6100f8565b5b600061014d84828501610114565b91505092915050565b600073ffffffffffffffffffffffffffffffffffffffff82169050919050565b600061018182610156565b9050919050565b61019181610176565b811461019c57600080fd5b50565b6000813590506101ae81610188565b92915050565b6000806000606084860312156101cd576101cc6100f8565b5b60006101db8682870161019f565b93505060206101ec86828701610114565b92505060406101fd86828701610114565b915050925092509256fea2646970667358221220607b8348f1625134d956d5e16bcef38b9a8f6d0027cab84c838f2d6937a3f40164736f6c63430008180033",
  "linkReferences": {},
  "deployedLinkReferences": {}
}