{
    "_format": "hh-sol-artifact-1",
    "contractName": "Dreamaker",
    "sourceName": "contracts/Dreamaker.sol",
    "abi": [
        {
            "inputs": [
                {
                    "internalType": "address",
                    "name": "initialOwner",
                    "type": "address"
                },
                {
                    "internalType": "uint256",
                    "name": "initialSupply",
                    "type": "uint256"
                }
            ],
            "stateMutability": "nonpayable",
            "type": "constructor"
        },
        {
            "inputs": [],
            "name": "ECDSAInvalidSignature",
            "type": "error"
        },
        {
            "inputs": [
                {
                    "internalType": "uint256",
                    "name": "length",
                    "type": "uint256"
                }
            ],
            "name": "ECDSAInvalidSignatureLength",
            "type": "error"
        },
        {
            "inputs": [
                {
                    "internalType": "bytes32",
                    "name": "s",
                    "type": "bytes32"
                }
            ],
            "name": "ECDSAInvalidSignatureS",
            "type": "error"
        },
        {
            "inputs": [
                {
                    "internalType": "address",
                    "name": "spender",
                    "type": "address"
                },
                {
                    "internalType": "uint256",
                    "name": "allowance",
                    "type": "uint256"
                },
                {
                    "internalType": "uint256",
                    "name": "needed",
                    "type": "uint256"
                }
            ],
            "name": "ERC20InsufficientAllowance",
            "type": "error"
        },
        {
            "inputs": [
                {
                    "internalType": "address",
                    "name": "sender",
                    "type": "address"
                },
                {
                    "internalType": "uint256",
                    "name": "balance",
                    "type": "uint256"
                },
                {
                    "internalType": "uint256",
                    "name": "needed",
                    "type": "uint256"
                }
            ],
            "name": "ERC20InsufficientBalance",
            "type": "error"
        },
        {
            "inputs": [
                {
                    "internalType": "address",
                    "name": "approver",
                    "type": "address"
                }
            ],
            "name": "ERC20InvalidApprover",
            "type": "error"
        },
        {
            "inputs": [
                {
                    "internalType": "address",
                    "name": "receiver",
                    "type": "address"
                }
            ],
            "name": "ERC20InvalidReceiver",
            "type": "error"
        },
        {
            "inputs": [
                {
                    "internalType": "address",
                    "name": "sender",
                    "type": "address"
                }
            ],
            "name": "ERC20InvalidSender",
            "type": "error"
        },
        {
            "inputs": [
                {
                    "internalType": "address",
                    "name": "spender",
                    "type": "address"
                }
            ],
            "name": "ERC20InvalidSpender",
            "type": "error"
        },
        {
            "inputs": [
                {
                    "internalType": "uint256",
                    "name": "deadline",
                    "type": "uint256"
                }
            ],
            "name": "ERC2612ExpiredSignature",
            "type": "error"
        },
        {
            "inputs": [
                {
                    "internalType": "address",
                    "name": "signer",
                    "type": "address"
                },
                {
                    "internalType": "address",
                    "name": "owner",
                    "type": "address"
                }
            ],
            "name": "ERC2612InvalidSigner",
            "type": "error"
        },
        {
            "inputs": [
                {
                    "internalType": "address",
                    "name": "account",
                    "type": "address"
                },
                {
                    "internalType": "uint256",
                    "name": "currentNonce",
                    "type": "uint256"
                }
            ],
            "name": "InvalidAccountNonce",
            "type": "error"
        },
        {
            "inputs": [],
            "name": "InvalidInput",
            "type": "error"
        },
        {
            "inputs": [],
            "name": "InvalidShortString",
            "type": "error"
        },
        {
            "inputs": [
                {
                    "internalType": "address",
                    "name": "owner",
                    "type": "address"
                }
            ],
            "name": "OwnableInvalidOwner",
            "type": "error"
        },
        {
            "inputs": [
                {
                    "internalType": "address",
                    "name": "account",
                    "type": "address"
                }
            ],
            "name": "OwnableUnauthorizedAccount",
            "type": "error"
        },
        {
            "inputs": [
                {
                    "internalType": "string",
                    "name": "str",
                    "type": "string"
                }
            ],
            "name": "StringTooLong",
            "type": "error"
        },
        {
            "anonymous": false,
            "inputs": [
                {
                    "indexed": true,
                    "internalType": "address",
                    "name": "owner",
                    "type": "address"
                },
                {
                    "indexed": true,
                    "internalType": "address",
                    "name": "spender",
                    "type": "address"
                },
                {
                    "indexed": false,
                    "internalType": "uint256",
                    "name": "value",
                    "type": "uint256"
                }
            ],
            "name": "Approval",
            "type": "event"
        },
        {
            "anonymous": false,
            "inputs": [
                {
                    "indexed": false,
                    "internalType": "address",
                    "name": "from",
                    "type": "address"
                },
                {
                    "indexed": false,
                    "internalType": "address",
                    "name": "proxy",
                    "type": "address"
                },
                {
                    "indexed": false,
                    "internalType": "uint256",
                    "name": "amount",
                    "type": "uint256"
                }
            ],
            "name": "DreamBoosted",
            "type": "event"
        },
        {
            "anonymous": false,
            "inputs": [],
            "name": "EIP712DomainChanged",
            "type": "event"
        },
        {
            "anonymous": false,
            "inputs": [
                {
                    "indexed": true,
                    "internalType": "address",
                    "name": "previousOwner",
                    "type": "address"
                },
                {
                    "indexed": true,
                    "internalType": "address",
                    "name": "newOwner",
                    "type": "address"
                }
            ],
            "name": "OwnershipTransferred",
            "type": "event"
        },
        {
            "anonymous": false,
            "inputs": [
                {
                    "indexed": true,
                    "internalType": "address",
                    "name": "from",
                    "type": "address"
                },
                {
                    "indexed": true,
                    "internalType": "address",
                    "name": "to",
                    "type": "address"
                },
                {
                    "indexed": false,
                    "internalType": "uint256",
                    "name": "value",
                    "type": "uint256"
                }
            ],
            "name": "Transfer",
            "type": "event"
        },
        {
            "inputs": [],
            "name": "DOMAIN_SEPARATOR",
            "outputs": [
                {
                    "internalType": "bytes32",
                    "name": "",
                    "type": "bytes32"
                }
            ],
            "stateMutability": "view",
            "type": "function"
        },
        {
            "inputs": [
                {
                    "internalType": "address",
                    "name": "owner",
                    "type": "address"
                },
                {
                    "internalType": "address",
                    "name": "spender",
                    "type": "address"
                }
            ],
            "name": "allowance",
            "outputs": [
                {
                    "internalType": "uint256",
                    "name": "",
                    "type": "uint256"
                }
            ],
            "stateMutability": "view",
            "type": "function"
        },
        {
            "inputs": [
                {
                    "internalType": "address",
                    "name": "spender",
                    "type": "address"
                },
                {
                    "internalType": "uint256",
                    "name": "value",
                    "type": "uint256"
                }
            ],
            "name": "approve",
            "outputs": [
                {
                    "internalType": "bool",
                    "name": "",
                    "type": "bool"
                }
            ],
            "stateMutability": "nonpayable",
            "type": "function"
        },
        {
            "inputs": [
                {
                    "internalType": "address",
                    "name": "account",
                    "type": "address"
                }
            ],
            "name": "balanceOf",
            "outputs": [
                {
                    "internalType": "uint256",
                    "name": "",
                    "type": "uint256"
                }
            ],
            "stateMutability": "view",
            "type": "function"
        },
        {
            "inputs": [
                {
                    "internalType": "address",
                    "name": "_dream",
                    "type": "address"
                },
                {
                    "internalType": "uint256",
                    "name": "_amount",
                    "type": "uint256"
                }
            ],
            "name": "boost",
            "outputs": [],
            "stateMutability": "nonpayable",
            "type": "function"
        },
        {
            "inputs": [
                {
                    "internalType": "uint256",
                    "name": "value",
                    "type": "uint256"
                }
            ],
            "name": "burn",
            "outputs": [],
            "stateMutability": "nonpayable",
            "type": "function"
        },
        {
            "inputs": [
                {
                    "internalType": "address",
                    "name": "account",
                    "type": "address"
                },
                {
                    "internalType": "uint256",
                    "name": "value",
                    "type": "uint256"
                }
            ],
            "name": "burnFrom",
            "outputs": [],
            "stateMutability": "nonpayable",
            "type": "function"
        },
        {
            "inputs": [],
            "name": "decimals",
            "outputs": [
                {
                    "internalType": "uint8",
                    "name": "",
                    "type": "uint8"
                }
            ],
            "stateMutability": "view",
            "type": "function"
        },
        {
            "inputs": [],
            "name": "eip712Domain",
            "outputs": [
                {
                    "internalType": "bytes1",
                    "name": "fields",
                    "type": "bytes1"
                },
                {
                    "internalType": "string",
                    "name": "name",
                    "type": "string"
                },
                {
                    "internalType": "string",
                    "name": "version",
                    "type": "string"
                },
                {
                    "internalType": "uint256",
                    "name": "chainId",
                    "type": "uint256"
                },
                {
                    "internalType": "address",
                    "name": "verifyingContract",
                    "type": "address"
                },
                {
                    "internalType": "bytes32",
                    "name": "salt",
                    "type": "bytes32"
                },
                {
                    "internalType": "uint256[]",
                    "name": "extensions",
                    "type": "uint256[]"
                }
            ],
            "stateMutability": "view",
            "type": "function"
        },
        {
            "inputs": [
                {
                    "internalType": "address",
                    "name": "to",
                    "type": "address"
                },
                {
                    "internalType": "uint256",
                    "name": "amount",
                    "type": "uint256"
                }
            ],
            "name": "mint",
            "outputs": [],
            "stateMutability": "nonpayable",
            "type": "function"
        },
        {
            "inputs": [],
            "name": "name",
            "outputs": [
                {
                    "internalType": "string",
                    "name": "",
                    "type": "string"
                }
            ],
            "stateMutability": "view",
            "type": "function"
        },
        {
            "inputs": [
                {
                    "internalType": "address",
                    "name": "owner",
                    "type": "address"
                }
            ],
            "name": "nonces",
            "outputs": [
                {
                    "internalType": "uint256",
                    "name": "",
                    "type": "uint256"
                }
            ],
            "stateMutability": "view",
            "type": "function"
        },
        {
            "inputs": [
                {
                    "internalType": "address[]",
                    "name": "to",
                    "type": "address[]"
                },
                {
                    "internalType": "uint256[]",
                    "name": "amount",
                    "type": "uint256[]"
                }
            ],
            "name": "offer",
            "outputs": [],
            "stateMutability": "nonpayable",
            "type": "function"
        },
        {
            "inputs": [],
            "name": "owner",
            "outputs": [
                {
                    "internalType": "address",
                    "name": "",
                    "type": "address"
                }
            ],
            "stateMutability": "view",
            "type": "function"
        },
        {
            "inputs": [
                {
                    "internalType": "address",
                    "name": "owner",
                    "type": "address"
                },
                {
                    "internalType": "address",
                    "name": "spender",
                    "type": "address"
                },
                {
                    "internalType": "uint256",
                    "name": "value",
                    "type": "uint256"
                },
                {
                    "internalType": "uint256",
                    "name": "deadline",
                    "type": "uint256"
                },
                {
                    "internalType": "uint8",
                    "name": "v",
                    "type": "uint8"
                },
                {
                    "internalType": "bytes32",
                    "name": "r",
                    "type": "bytes32"
                },
                {
                    "internalType": "bytes32",
                    "name": "s",
                    "type": "bytes32"
                }
            ],
            "name": "permit",
            "outputs": [],
            "stateMutability": "nonpayable",
            "type": "function"
        },
        {
            "inputs": [],
            "name": "renounceOwnership",
            "outputs": [],
            "stateMutability": "nonpayable",
            "type": "function"
        },
        {
            "inputs": [],
            "name": "symbol",
            "outputs": [
                {
                    "internalType": "string",
                    "name": "",
                    "type": "string"
                }
            ],
            "stateMutability": "view",
            "type": "function"
        },
        {
            "inputs": [],
            "name": "totalSupply",
            "outputs": [
                {
                    "internalType": "uint256",
                    "name": "",
                    "type": "uint256"
                }
            ],
            "stateMutability": "view",
            "type": "function"
        },
        {
            "inputs": [
                {
                    "internalType": "address",
                    "name": "to",
                    "type": "address"
                },
                {
                    "internalType": "uint256",
                    "name": "value",
                    "type": "uint256"
                }
            ],
            "name": "transfer",
            "outputs": [
                {
                    "internalType": "bool",
                    "name": "",
                    "type": "bool"
                }
            ],
            "stateMutability": "nonpayable",
            "type": "function"
        },
        {
            "inputs": [
                {
                    "internalType": "address",
                    "name": "from",
                    "type": "address"
                },
                {
                    "internalType": "address",
                    "name": "to",
                    "type": "address"
                },
                {
                    "internalType": "uint256",
                    "name": "value",
                    "type": "uint256"
                }
            ],
            "name": "transferFrom",
            "outputs": [
                {
                    "internalType": "bool",
                    "name": "",
                    "type": "bool"
                }
            ],
            "stateMutability": "nonpayable",
            "type": "function"
        },
        {
            "inputs": [
                {
                    "internalType": "address",
                    "name": "newOwner",
                    "type": "address"
                }
            ],
            "name": "transferOwnership",
            "outputs": [],
            "stateMutability": "nonpayable",
            "type": "function"
        }
    ],
    "bytecode": "0x6101606040523480156200001257600080fd5b506040516200360338038062003603833981810160405281019062000038919062000811565b6040518060400160405280600781526020017f4d79546f6b656e00000000000000000000000000000000000000000000000000815250806040518060400160405280600181526020017f3100000000000000000000000000000000000000000000000000000000000000815250846040518060400160405280600981526020017f447265616d616b657200000000000000000000000000000000000000000000008152506040518060400160405280600381526020017f444d4b0000000000000000000000000000000000000000000000000000000000815250816003908162000123919062000ac8565b50806004908162000135919062000ac8565b505050600073ffffffffffffffffffffffffffffffffffffffff168173ffffffffffffffffffffffffffffffffffffffff1603620001ad5760006040517f1e4fbdf7000000000000000000000000000000000000000000000000000000008152600401620001a4919062000bc0565b60405180910390fd5b620001be81620002b460201b60201c565b50620001d56006836200037a60201b90919060201c565b6101208181525050620001f36007826200037a60201b90919060201c565b6101408181525050818051906020012060e08181525050808051906020012061010081815250504660a0818152505062000232620003d260201b60201c565b608081815250503073ffffffffffffffffffffffffffffffffffffffff1660c08173ffffffffffffffffffffffffffffffffffffffff1681525050505050620002ac82620002856200042f60201b60201c565b600a62000293919062000d6d565b83620002a0919062000dbe565b6200043860201b60201c565b50506200107c565b6000600560009054906101000a900473ffffffffffffffffffffffffffffffffffffffff16905081600560006101000a81548173ffffffffffffffffffffffffffffffffffffffff021916908373ffffffffffffffffffffffffffffffffffffffff1602179055508173ffffffffffffffffffffffffffffffffffffffff168173ffffffffffffffffffffffffffffffffffffffff167f8be0079c531659141344cd1fd0a4f28419497f9722a3daafe3b4186f6b6457e060405160405180910390a35050565b6000602083511015620003a0576200039883620004c560201b60201c565b9050620003cc565b82620003b2836200053260201b60201c565b6000019081620003c3919062000ac8565b5060ff60001b90505b92915050565b60007f8b73c3c69bb8fe3d512ecc4cf759cc79239f7b179b0ffacaa9a75d522b39400f60e0516101005146306040516020016200041495949392919062000e35565b60405160208183030381529060405280519060200120905090565b60006012905090565b600073ffffffffffffffffffffffffffffffffffffffff168273ffffffffffffffffffffffffffffffffffffffff1603620004ad5760006040517fec442f05000000000000000000000000000000000000000000000000000000008152600401620004a4919062000bc0565b60405180910390fd5b620004c1600083836200053c60201b60201c565b5050565b600080829050601f815111156200051557826040517f305a27a90000000000000000000000000000000000000000000000000000000081526004016200050c919062000f21565b60405180910390fd5b805181620005239062000f77565b60001c1760001b915050919050565b6000819050919050565b600073ffffffffffffffffffffffffffffffffffffffff168373ffffffffffffffffffffffffffffffffffffffff16036200059257806002600082825462000585919062000fe7565b9250508190555062000668565b60008060008573ffffffffffffffffffffffffffffffffffffffff1673ffffffffffffffffffffffffffffffffffffffff1681526020019081526020016000205490508181101562000621578381836040517fe450d38c000000000000000000000000000000000000000000000000000000008152600401620006189392919062001022565b60405180910390fd5b8181036000808673ffffffffffffffffffffffffffffffffffffffff1673ffffffffffffffffffffffffffffffffffffffff16815260200190815260200160002081905550505b600073ffffffffffffffffffffffffffffffffffffffff168273ffffffffffffffffffffffffffffffffffffffff1603620006b3578060026000828254039250508190555062000700565b806000808473ffffffffffffffffffffffffffffffffffffffff1673ffffffffffffffffffffffffffffffffffffffff168152602001908152602001600020600082825401925050819055505b8173ffffffffffffffffffffffffffffffffffffffff168373ffffffffffffffffffffffffffffffffffffffff167fddf252ad1be2c89b69c2b068fc378daa952ba7f163c4a11628f55a4df523b3ef836040516200075f91906200105f565b60405180910390a3505050565b600080fd5b600073ffffffffffffffffffffffffffffffffffffffff82169050919050565b60006200079e8262000771565b9050919050565b620007b08162000791565b8114620007bc57600080fd5b50565b600081519050620007d081620007a5565b92915050565b6000819050919050565b620007eb81620007d6565b8114620007f757600080fd5b50565b6000815190506200080b81620007e0565b92915050565b600080604083850312156200082b576200082a6200076c565b5b60006200083b85828601620007bf565b92505060206200084e85828601620007fa565b9150509250929050565b600081519050919050565b7f4e487b7100000000000000000000000000000000000000000000000000000000600052604160045260246000fd5b7f4e487b7100000000000000000000000000000000000000000000000000000000600052602260045260246000fd5b60006002820490506001821680620008da57607f821691505b602082108103620008f057620008ef62000892565b5b50919050565b60008190508160005260206000209050919050565b60006020601f8301049050919050565b600082821b905092915050565b6000600883026200095a7fffffffffffffffffffffffffffffffffffffffffffffffffffffffffffffffff826200091b565b6200096686836200091b565b95508019841693508086168417925050509392505050565b6000819050919050565b6000620009a9620009a36200099d84620007d6565b6200097e565b620007d6565b9050919050565b6000819050919050565b620009c58362000988565b620009dd620009d482620009b0565b84845462000928565b825550505050565b600090565b620009f4620009e5565b62000a01818484620009ba565b505050565b5b8181101562000a295762000a1d600082620009ea565b60018101905062000a07565b5050565b601f82111562000a785762000a4281620008f6565b62000a4d846200090b565b8101602085101562000a5d578190505b62000a7562000a6c856200090b565b83018262000a06565b50505b505050565b600082821c905092915050565b600062000a9d6000198460080262000a7d565b1980831691505092915050565b600062000ab8838362000a8a565b9150826002028217905092915050565b62000ad38262000858565b67ffffffffffffffff81111562000aef5762000aee62000863565b5b62000afb8254620008c1565b62000b0882828562000a2d565b600060209050601f83116001811462000b40576000841562000b2b578287015190505b62000b37858262000aaa565b86555062000ba7565b601f19841662000b5086620008f6565b60005b8281101562000b7a5784890151825560018201915060208501945060208101905062000b53565b8683101562000b9a578489015162000b96601f89168262000a8a565b8355505b6001600288020188555050505b505050505050565b62000bba8162000791565b82525050565b600060208201905062000bd7600083018462000baf565b92915050565b7f4e487b7100000000000000000000000000000000000000000000000000000000600052601160045260246000fd5b60008160011c9050919050565b6000808291508390505b600185111562000c6b5780860481111562000c435762000c4262000bdd565b5b600185161562000c535780820291505b808102905062000c638562000c0c565b945062000c23565b94509492505050565b60008262000c86576001905062000d59565b8162000c96576000905062000d59565b816001811462000caf576002811462000cba5762000cf0565b600191505062000d59565b60ff84111562000ccf5762000cce62000bdd565b5b8360020a91508482111562000ce95762000ce862000bdd565b5b5062000d59565b5060208310610133831016604e8410600b841016171562000d2a5782820a90508381111562000d245762000d2362000bdd565b5b62000d59565b62000d39848484600162000c19565b9250905081840481111562000d535762000d5262000bdd565b5b81810290505b9392505050565b600060ff82169050919050565b600062000d7a82620007d6565b915062000d878362000d60565b925062000db67fffffffffffffffffffffffffffffffffffffffffffffffffffffffffffffffff848462000c74565b905092915050565b600062000dcb82620007d6565b915062000dd883620007d6565b925082820262000de881620007d6565b9150828204841483151762000e025762000e0162000bdd565b5b5092915050565b6000819050919050565b62000e1e8162000e09565b82525050565b62000e2f81620007d6565b82525050565b600060a08201905062000e4c600083018862000e13565b62000e5b602083018762000e13565b62000e6a604083018662000e13565b62000e79606083018562000e24565b62000e88608083018462000baf565b9695505050505050565b600082825260208201905092915050565b60005b8381101562000ec357808201518184015260208101905062000ea6565b60008484015250505050565b6000601f19601f8301169050919050565b600062000eed8262000858565b62000ef9818562000e92565b935062000f0b81856020860162000ea3565b62000f168162000ecf565b840191505092915050565b6000602082019050818103600083015262000f3d818462000ee0565b905092915050565b600081519050919050565b6000819050602082019050919050565b600062000f6e825162000e09565b80915050919050565b600062000f848262000f45565b8262000f908462000f50565b905062000f9d8162000f60565b9250602082101562000fe05762000fdb7fffffffffffffffffffffffffffffffffffffffffffffffffffffffffffffffff836020036008026200091b565b831692505b5050919050565b600062000ff482620007d6565b91506200100183620007d6565b92508282019050808211156200101c576200101b62000bdd565b5b92915050565b600060608201905062001039600083018662000baf565b62001048602083018562000e24565b62001057604083018462000e24565b949350505050565b600060208201905062001076600083018462000e24565b92915050565b60805160a05160c05160e05161010051610120516101405161252c620010d7600039600061105d01526000611022015260006115720152600061155101526000610ccc01526000610d2201526000610d4b015261252c6000f3fe608060405234801561001057600080fd5b50600436106101375760003560e01c8063715018a6116100b857806395d89b411161007c57806395d89b4114610330578063a9059cbb1461034e578063d505accf1461037e578063dd62ed3e1461039a578063f0629f0f146103ca578063f2fde38b146103e657610137565b8063715018a61461029857806379cc6790146102a25780637ecebe00146102be57806384b0196e146102ee5780638da5cb5b1461031257610137565b80633644e515116100ff5780633644e515146101f657806340c10f191461021457806342966c681461023057806361d0e43a1461024c57806370a082311461026857610137565b806306fdde031461013c578063095ea7b31461015a57806318160ddd1461018a57806323b872dd146101a8578063313ce567146101d8575b600080fd5b610144610402565b6040516101519190611a5f565b60405180910390f35b610174600480360381019061016f9190611b29565b610494565b6040516101819190611b84565b60405180910390f35b6101926104b7565b60405161019f9190611bae565b60405180910390f35b6101c260048036038101906101bd9190611bc9565b6104c1565b6040516101cf9190611b84565b60405180910390f35b6101e06104f0565b6040516101ed9190611c38565b60405180910390f35b6101fe6104f9565b60405161020b9190611c6c565b60405180910390f35b61022e60048036038101906102299190611b29565b610508565b005b61024a60048036038101906102459190611c87565b61051e565b005b61026660048036038101906102619190611b29565b610532565b005b610282600480360381019061027d9190611cb4565b61060e565b60405161028f9190611bae565b60405180910390f35b6102a0610656565b005b6102bc60048036038101906102b79190611b29565b61066a565b005b6102d860048036038101906102d39190611cb4565b61068a565b6040516102e59190611bae565b60405180910390f35b6102f661069c565b6040516103099796959493929190611de9565b60405180910390f35b61031a610746565b6040516103279190611e6d565b60405180910390f35b610338610770565b6040516103459190611a5f565b60405180910390f35b61036860048036038101906103639190611b29565b610802565b6040516103759190611b84565b60405180910390f35b61039860048036038101906103939190611ee0565b610825565b005b6103b460048036038101906103af9190611f82565b61096d565b6040516103c19190611bae565b60405180910390f35b6103e460048036038101906103df91906121cd565b6109f4565b005b61040060048036038101906103fb9190611cb4565b610aa0565b005b60606003805461041190612274565b80601f016020809104026020016040519081016040528092919081815260200182805461043d90612274565b801561048a5780601f1061045f5761010080835404028352916020019161048a565b820191906000526020600020905b81548152906001019060200180831161046d57829003601f168201915b5050505050905090565b60008061049f610b26565b90506104ac818585610b2e565b600191505092915050565b6000600254905090565b6000806104cc610b26565b90506104d9858285610b40565b6104e4858585610bd4565b60019150509392505050565b60006012905090565b6000610503610cc8565b905090565b610510610d7f565b61051a8282610e06565b5050565b61052f610529610b26565b82610e88565b50565b6000810361056c576040517fb4fa3fb300000000000000000000000000000000000000000000000000000000815260040160405180910390fd5b6105753361060e565b8111156105c55733816105873361060e565b6040517fe450d38c0000000000000000000000000000000000000000000000000000000081526004016105bc939291906122a5565b60405180910390fd5b6105cf3382610e88565b7fb4b1675293a9ad0b5c9f4918c952e35092381d660207c9e0e0d988cea4174a10338383604051610602939291906122dc565b60405180910390a15050565b60008060008373ffffffffffffffffffffffffffffffffffffffff1673ffffffffffffffffffffffffffffffffffffffff168152602001908152602001600020549050919050565b61065e610d7f565b6106686000610f0a565b565b61067c82610676610b26565b83610b40565b6106868282610e88565b5050565b600061069582610fd0565b9050919050565b6000606080600080600060606106b0611019565b6106b8611054565b46306000801b600067ffffffffffffffff8111156106d9576106d8611fc7565b5b6040519080825280602002602001820160405280156107075781602001602082028036833780820191505090505b507f0f00000000000000000000000000000000000000000000000000000000000000959493929190965096509650965096509650965090919293949596565b6000600560009054906101000a900473ffffffffffffffffffffffffffffffffffffffff16905090565b60606004805461077f90612274565b80601f01602080910402602001604051908101604052809291908181526020018280546107ab90612274565b80156107f85780601f106107cd576101008083540402835291602001916107f8565b820191906000526020600020905b8154815290600101906020018083116107db57829003601f168201915b5050505050905090565b60008061080d610b26565b905061081a818585610bd4565b600191505092915050565b8342111561086a57836040517f627913020000000000000000000000000000000000000000000000000000000081526004016108619190611bae565b60405180910390fd5b60007f6e71edae12b1b97f4d1f60370fef10105fa2faae0126114a169c64845d6126c98888886108998c61108f565b896040516020016108af96959493929190612313565b60405160208183030381529060405280519060200120905060006108d2826110e6565b905060006108e282878787611100565b90508973ffffffffffffffffffffffffffffffffffffffff168173ffffffffffffffffffffffffffffffffffffffff161461095657808a6040517f4b800e4600000000000000000000000000000000000000000000000000000000815260040161094d929190612374565b60405180910390fd5b6109618a8a8a610b2e565b50505050505050505050565b6000600160008473ffffffffffffffffffffffffffffffffffffffff1673ffffffffffffffffffffffffffffffffffffffff16815260200190815260200160002060008373ffffffffffffffffffffffffffffffffffffffff1673ffffffffffffffffffffffffffffffffffffffff16815260200190815260200160002054905092915050565b6109fc610d7f565b600082511480610a0d575060008151145b15610a44576040517fb4fa3fb300000000000000000000000000000000000000000000000000000000815260040160405180910390fd5b60005b8251811015610a9b57610a8e838281518110610a6657610a6561239d565b5b6020026020010151838381518110610a8157610a8061239d565b5b6020026020010151610e06565b8080600101915050610a47565b505050565b610aa8610d7f565b600073ffffffffffffffffffffffffffffffffffffffff168173ffffffffffffffffffffffffffffffffffffffff1603610b1a5760006040517f1e4fbdf7000000000000000000000000000000000000000000000000000000008152600401610b119190611e6d565b60405180910390fd5b610b2381610f0a565b50565b600033905090565b610b3b8383836001611130565b505050565b6000610b4c848461096d565b90507fffffffffffffffffffffffffffffffffffffffffffffffffffffffffffffffff8114610bce5781811015610bbe578281836040517ffb8f41b2000000000000000000000000000000000000000000000000000000008152600401610bb5939291906122a5565b60405180910390fd5b610bcd84848484036000611130565b5b50505050565b600073ffffffffffffffffffffffffffffffffffffffff168373ffffffffffffffffffffffffffffffffffffffff1603610c465760006040517f96c6fd1e000000000000000000000000000000000000000000000000000000008152600401610c3d9190611e6d565b60405180910390fd5b600073ffffffffffffffffffffffffffffffffffffffff168273ffffffffffffffffffffffffffffffffffffffff1603610cb85760006040517fec442f05000000000000000000000000000000000000000000000000000000008152600401610caf9190611e6d565b60405180910390fd5b610cc3838383611307565b505050565b60007f000000000000000000000000000000000000000000000000000000000000000073ffffffffffffffffffffffffffffffffffffffff163073ffffffffffffffffffffffffffffffffffffffff16148015610d4457507f000000000000000000000000000000000000000000000000000000000000000046145b15610d71577f00000000000000000000000000000000000000000000000000000000000000009050610d7c565b610d7961152c565b90505b90565b610d87610b26565b73ffffffffffffffffffffffffffffffffffffffff16610da5610746565b73ffffffffffffffffffffffffffffffffffffffff1614610e0457610dc8610b26565b6040517f118cdaa7000000000000000000000000000000000000000000000000000000008152600401610dfb9190611e6d565b60405180910390fd5b565b600073ffffffffffffffffffffffffffffffffffffffff168273ffffffffffffffffffffffffffffffffffffffff1603610e785760006040517fec442f05000000000000000000000000000000000000000000000000000000008152600401610e6f9190611e6d565b60405180910390fd5b610e8460008383611307565b5050565b600073ffffffffffffffffffffffffffffffffffffffff168273ffffffffffffffffffffffffffffffffffffffff1603610efa5760006040517f96c6fd1e000000000000000000000000000000000000000000000000000000008152600401610ef19190611e6d565b60405180910390fd5b610f0682600083611307565b5050565b6000600560009054906101000a900473ffffffffffffffffffffffffffffffffffffffff16905081600560006101000a81548173ffffffffffffffffffffffffffffffffffffffff021916908373ffffffffffffffffffffffffffffffffffffffff1602179055508173ffffffffffffffffffffffffffffffffffffffff168173ffffffffffffffffffffffffffffffffffffffff167f8be0079c531659141344cd1fd0a4f28419497f9722a3daafe3b4186f6b6457e060405160405180910390a35050565b6000600860008373ffffffffffffffffffffffffffffffffffffffff1673ffffffffffffffffffffffffffffffffffffffff168152602001908152602001600020549050919050565b606061104f60067f00000000000000000000000000000000000000000000000000000000000000006115c290919063ffffffff16565b905090565b606061108a60077f00000000000000000000000000000000000000000000000000000000000000006115c290919063ffffffff16565b905090565b6000600860008373ffffffffffffffffffffffffffffffffffffffff1673ffffffffffffffffffffffffffffffffffffffff1681526020019081526020016000206000815480929190600101919050559050919050565b60006110f96110f3610cc8565b83611672565b9050919050565b600080600080611112888888886116b3565b92509250925061112282826117a7565b829350505050949350505050565b600073ffffffffffffffffffffffffffffffffffffffff168473ffffffffffffffffffffffffffffffffffffffff16036111a25760006040517fe602df050000000000000000000000000000000000000000000000000000000081526004016111999190611e6d565b60405180910390fd5b600073ffffffffffffffffffffffffffffffffffffffff168373ffffffffffffffffffffffffffffffffffffffff16036112145760006040517f94280d6200000000000000000000000000000000000000000000000000000000815260040161120b9190611e6d565b60405180910390fd5b81600160008673ffffffffffffffffffffffffffffffffffffffff1673ffffffffffffffffffffffffffffffffffffffff16815260200190815260200160002060008573ffffffffffffffffffffffffffffffffffffffff1673ffffffffffffffffffffffffffffffffffffffff168152602001908152602001600020819055508015611301578273ffffffffffffffffffffffffffffffffffffffff168473ffffffffffffffffffffffffffffffffffffffff167f8c5be1e5ebec7d5bd14f71427d1e84f3dd0314c0f7b2291e5b200ac8c7c3b925846040516112f89190611bae565b60405180910390a35b50505050565b600073ffffffffffffffffffffffffffffffffffffffff168373ffffffffffffffffffffffffffffffffffffffff160361135957806002600082825461134d91906123fb565b9250508190555061142c565b60008060008573ffffffffffffffffffffffffffffffffffffffff1673ffffffffffffffffffffffffffffffffffffffff168152602001908152602001600020549050818110156113e5578381836040517fe450d38c0000000000000000000000000000000000000000000000000000000081526004016113dc939291906122a5565b60405180910390fd5b8181036000808673ffffffffffffffffffffffffffffffffffffffff1673ffffffffffffffffffffffffffffffffffffffff16815260200190815260200160002081905550505b600073ffffffffffffffffffffffffffffffffffffffff168273ffffffffffffffffffffffffffffffffffffffff160361147557806002600082825403925050819055506114c2565b806000808473ffffffffffffffffffffffffffffffffffffffff1673ffffffffffffffffffffffffffffffffffffffff168152602001908152602001600020600082825401925050819055505b8173ffffffffffffffffffffffffffffffffffffffff168373ffffffffffffffffffffffffffffffffffffffff167fddf252ad1be2c89b69c2b068fc378daa952ba7f163c4a11628f55a4df523b3ef8360405161151f9190611bae565b60405180910390a3505050565b60007f8b73c3c69bb8fe3d512ecc4cf759cc79239f7b179b0ffacaa9a75d522b39400f7f00000000000000000000000000000000000000000000000000000000000000007f000000000000000000000000000000000000000000000000000000000000000046306040516020016115a795949392919061242f565b60405160208183030381529060405280519060200120905090565b606060ff60001b83146115df576115d88361190b565b905061166c565b8180546115eb90612274565b80601f016020809104026020016040519081016040528092919081815260200182805461161790612274565b80156116645780601f1061163957610100808354040283529160200191611664565b820191906000526020600020905b81548152906001019060200180831161164757829003601f168201915b505050505090505b92915050565b60006040517f190100000000000000000000000000000000000000000000000000000000000081528360028201528260228201526042812091505092915050565b60008060007f7fffffffffffffffffffffffffffffff5d576e7357a4501ddfe92f46681b20a08460001c11156116f357600060038592509250925061179d565b6000600188888888604051600081526020016040526040516117189493929190612482565b6020604051602081039080840390855afa15801561173a573d6000803e3d6000fd5b505050602060405103519050600073ffffffffffffffffffffffffffffffffffffffff168173ffffffffffffffffffffffffffffffffffffffff160361178e57600060016000801b9350935093505061179d565b8060008060001b935093509350505b9450945094915050565b600060038111156117bb576117ba6124c7565b5b8260038111156117ce576117cd6124c7565b5b031561190757600160038111156117e8576117e76124c7565b5b8260038111156117fb576117fa6124c7565b5b03611832576040517ff645eedf00000000000000000000000000000000000000000000000000000000815260040160405180910390fd5b60026003811115611846576118456124c7565b5b826003811115611859576118586124c7565b5b0361189e578060001c6040517ffce698f70000000000000000000000000000000000000000000000000000000081526004016118959190611bae565b60405180910390fd5b6003808111156118b1576118b06124c7565b5b8260038111156118c4576118c36124c7565b5b0361190657806040517fd78bce0c0000000000000000000000000000000000000000000000000000000081526004016118fd9190611c6c565b60405180910390fd5b5b5050565b606060006119188361197f565b90506000602067ffffffffffffffff81111561193757611936611fc7565b5b6040519080825280601f01601f1916602001820160405280156119695781602001600182028036833780820191505090505b5090508181528360208201528092505050919050565b60008060ff8360001c169050601f8111156119c6576040517fb3512b0c00000000000000000000000000000000000000000000000000000000815260040160405180910390fd5b80915050919050565b600081519050919050565b600082825260208201905092915050565b60005b83811015611a095780820151818401526020810190506119ee565b60008484015250505050565b6000601f19601f8301169050919050565b6000611a31826119cf565b611a3b81856119da565b9350611a4b8185602086016119eb565b611a5481611a15565b840191505092915050565b60006020820190508181036000830152611a798184611a26565b905092915050565b6000604051905090565b600080fd5b600080fd5b600073ffffffffffffffffffffffffffffffffffffffff82169050919050565b6000611ac082611a95565b9050919050565b611ad081611ab5565b8114611adb57600080fd5b50565b600081359050611aed81611ac7565b92915050565b6000819050919050565b611b0681611af3565b8114611b1157600080fd5b50565b600081359050611b2381611afd565b92915050565b60008060408385031215611b4057611b3f611a8b565b5b6000611b4e85828601611ade565b9250506020611b5f85828601611b14565b9150509250929050565b60008115159050919050565b611b7e81611b69565b82525050565b6000602082019050611b996000830184611b75565b92915050565b611ba881611af3565b82525050565b6000602082019050611bc36000830184611b9f565b92915050565b600080600060608486031215611be257611be1611a8b565b5b6000611bf086828701611ade565b9350506020611c0186828701611ade565b9250506040611c1286828701611b14565b9150509250925092565b600060ff82169050919050565b611c3281611c1c565b82525050565b6000602082019050611c4d6000830184611c29565b92915050565b6000819050919050565b611c6681611c53565b82525050565b6000602082019050611c816000830184611c5d565b92915050565b600060208284031215611c9d57611c9c611a8b565b5b6000611cab84828501611b14565b91505092915050565b600060208284031215611cca57611cc9611a8b565b5b6000611cd884828501611ade565b91505092915050565b60007fff0000000000000000000000000000000000000000000000000000000000000082169050919050565b611d1681611ce1565b82525050565b611d2581611ab5565b82525050565b600081519050919050565b600082825260208201905092915050565b6000819050602082019050919050565b611d6081611af3565b82525050565b6000611d728383611d57565b60208301905092915050565b6000602082019050919050565b6000611d9682611d2b565b611da08185611d36565b9350611dab83611d47565b8060005b83811015611ddc578151611dc38882611d66565b9750611dce83611d7e565b925050600181019050611daf565b5085935050505092915050565b600060e082019050611dfe600083018a611d0d565b8181036020830152611e108189611a26565b90508181036040830152611e248188611a26565b9050611e336060830187611b9f565b611e406080830186611d1c565b611e4d60a0830185611c5d565b81810360c0830152611e5f8184611d8b565b905098975050505050505050565b6000602082019050611e826000830184611d1c565b92915050565b611e9181611c1c565b8114611e9c57600080fd5b50565b600081359050611eae81611e88565b92915050565b611ebd81611c53565b8114611ec857600080fd5b50565b600081359050611eda81611eb4565b92915050565b600080600080600080600060e0888a031215611eff57611efe611a8b565b5b6000611f0d8a828b01611ade565b9750506020611f1e8a828b01611ade565b9650506040611f2f8a828b01611b14565b9550506060611f408a828b01611b14565b9450506080611f518a828b01611e9f565b93505060a0611f628a828b01611ecb565b92505060c0611f738a828b01611ecb565b91505092959891949750929550565b60008060408385031215611f9957611f98611a8b565b5b6000611fa785828601611ade565b9250506020611fb885828601611ade565b9150509250929050565b600080fd5b7f4e487b7100000000000000000000000000000000000000000000000000000000600052604160045260246000fd5b611fff82611a15565b810181811067ffffffffffffffff8211171561201e5761201d611fc7565b5b80604052505050565b6000612031611a81565b905061203d8282611ff6565b919050565b600067ffffffffffffffff82111561205d5761205c611fc7565b5b602082029050602081019050919050565b600080fd5b600061208661208184612042565b612027565b905080838252602082019050602084028301858111156120a9576120a861206e565b5b835b818110156120d257806120be8882611ade565b8452602084019350506020810190506120ab565b5050509392505050565b600082601f8301126120f1576120f0611fc2565b5b8135612101848260208601612073565b91505092915050565b600067ffffffffffffffff82111561212557612124611fc7565b5b602082029050602081019050919050565b60006121496121448461210a565b612027565b9050808382526020820190506020840283018581111561216c5761216b61206e565b5b835b8181101561219557806121818882611b14565b84526020840193505060208101905061216e565b5050509392505050565b600082601f8301126121b4576121b3611fc2565b5b81356121c4848260208601612136565b91505092915050565b600080604083850312156121e4576121e3611a8b565b5b600083013567ffffffffffffffff81111561220257612201611a90565b5b61220e858286016120dc565b925050602083013567ffffffffffffffff81111561222f5761222e611a90565b5b61223b8582860161219f565b9150509250929050565b7f4e487b7100000000000000000000000000000000000000000000000000000000600052602260045260246000fd5b6000600282049050600182168061228c57607f821691505b60208210810361229f5761229e612245565b5b50919050565b60006060820190506122ba6000830186611d1c565b6122c76020830185611b9f565b6122d46040830184611b9f565b949350505050565b60006060820190506122f16000830186611d1c565b6122fe6020830185611d1c565b61230b6040830184611b9f565b949350505050565b600060c0820190506123286000830189611c5d565b6123356020830188611d1c565b6123426040830187611d1c565b61234f6060830186611b9f565b61235c6080830185611b9f565b61236960a0830184611b9f565b979650505050505050565b60006040820190506123896000830185611d1c565b6123966020830184611d1c565b9392505050565b7f4e487b7100000000000000000000000000000000000000000000000000000000600052603260045260246000fd5b7f4e487b7100000000000000000000000000000000000000000000000000000000600052601160045260246000fd5b600061240682611af3565b915061241183611af3565b9250828201905080821115612429576124286123cc565b5b92915050565b600060a0820190506124446000830188611c5d565b6124516020830187611c5d565b61245e6040830186611c5d565b61246b6060830185611b9f565b6124786080830184611d1c565b9695505050505050565b60006080820190506124976000830187611c5d565b6124a46020830186611c29565b6124b16040830185611c5d565b6124be6060830184611c5d565b95945050505050565b7f4e487b7100000000000000000000000000000000000000000000000000000000600052602160045260246000fdfea26469706673582212204a07ca699a12def8b0f65851e82fabd95431e2ee5f882343f065e0eb3c2fd14564736f6c63430008180033",
    "linkReferences": {},
    "deployedLinkReferences": {}
}