{
    "_format": "hh-sol-artifact-1",
    "contractName": "Dreamaker",
    "sourceName": "contracts/Dreamaker.sol",
    "abi": [
        {
            "inputs": [
                {
                    "internalType": "address",
                    "name": "initialOwner",
                    "type": "address"
                },
                {
                    "internalType": "uint256",
                    "name": "initialSupply",
                    "type": "uint256"
                }
            ],
            "stateMutability": "nonpayable",
            "type": "constructor"
        },
        {
            "inputs": [],
            "name": "ECDSAInvalidSignature",
            "type": "error"
        },
        {
            "inputs": [
                {
                    "internalType": "uint256",
                    "name": "length",
                    "type": "uint256"
                }
            ],
            "name": "ECDSAInvalidSignatureLength",
            "type": "error"
        },
        {
            "inputs": [
                {
                    "internalType": "bytes32",
                    "name": "s",
                    "type": "bytes32"
                }
            ],
            "name": "ECDSAInvalidSignatureS",
            "type": "error"
        },
        {
            "inputs": [
                {
                    "internalType": "address",
                    "name": "spender",
                    "type": "address"
                },
                {
                    "internalType": "uint256",
                    "name": "allowance",
                    "type": "uint256"
                },
                {
                    "internalType": "uint256",
                    "name": "needed",
                    "type": "uint256"
                }
            ],
            "name": "ERC20InsufficientAllowance",
            "type": "error"
        },
        {
            "inputs": [
                {
                    "internalType": "address",
                    "name": "sender",
                    "type": "address"
                },
                {
                    "internalType": "uint256",
                    "name": "balance",
                    "type": "uint256"
                },
                {
                    "internalType": "uint256",
                    "name": "needed",
                    "type": "uint256"
                }
            ],
            "name": "ERC20InsufficientBalance",
            "type": "error"
        },
        {
            "inputs": [
                {
                    "internalType": "address",
                    "name": "approver",
                    "type": "address"
                }
            ],
            "name": "ERC20InvalidApprover",
            "type": "error"
        },
        {
            "inputs": [
                {
                    "internalType": "address",
                    "name": "receiver",
                    "type": "address"
                }
            ],
            "name": "ERC20InvalidReceiver",
            "type": "error"
        },
        {
            "inputs": [
                {
                    "internalType": "address",
                    "name": "sender",
                    "type": "address"
                }
            ],
            "name": "ERC20InvalidSender",
            "type": "error"
        },
        {
            "inputs": [
                {
                    "internalType": "address",
                    "name": "spender",
                    "type": "address"
                }
            ],
            "name": "ERC20InvalidSpender",
            "type": "error"
        },
        {
            "inputs": [
                {
                    "internalType": "uint256",
                    "name": "deadline",
                    "type": "uint256"
                }
            ],
            "name": "ERC2612ExpiredSignature",
            "type": "error"
        },
        {
            "inputs": [
                {
                    "internalType": "address",
                    "name": "signer",
                    "type": "address"
                },
                {
                    "internalType": "address",
                    "name": "owner",
                    "type": "address"
                }
            ],
            "name": "ERC2612InvalidSigner",
            "type": "error"
        },
        {
            "inputs": [
                {
                    "internalType": "address",
                    "name": "account",
                    "type": "address"
                },
                {
                    "internalType": "uint256",
                    "name": "currentNonce",
                    "type": "uint256"
                }
            ],
            "name": "InvalidAccountNonce",
            "type": "error"
        },
        {
            "inputs": [],
            "name": "InvalidInput",
            "type": "error"
        },
        {
            "inputs": [],
            "name": "InvalidShortString",
            "type": "error"
        },
        {
            "inputs": [
                {
                    "internalType": "address",
                    "name": "owner",
                    "type": "address"
                }
            ],
            "name": "OwnableInvalidOwner",
            "type": "error"
        },
        {
            "inputs": [
                {
                    "internalType": "address",
                    "name": "account",
                    "type": "address"
                }
            ],
            "name": "OwnableUnauthorizedAccount",
            "type": "error"
        },
        {
            "inputs": [
                {
                    "internalType": "string",
                    "name": "str",
                    "type": "string"
                }
            ],
            "name": "StringTooLong",
            "type": "error"
        },
        {
            "anonymous": false,
            "inputs": [
                {
                    "indexed": true,
                    "internalType": "address",
                    "name": "owner",
                    "type": "address"
                },
                {
                    "indexed": true,
                    "internalType": "address",
                    "name": "spender",
                    "type": "address"
                },
                {
                    "indexed": false,
                    "internalType": "uint256",
                    "name": "value",
                    "type": "uint256"
                }
            ],
            "name": "Approval",
            "type": "event"
        },
        {
            "anonymous": false,
            "inputs": [],
            "name": "EIP712DomainChanged",
            "type": "event"
        },
        {
            "anonymous": false,
            "inputs": [
                {
                    "indexed": true,
                    "internalType": "address",
                    "name": "previousOwner",
                    "type": "address"
                },
                {
                    "indexed": true,
                    "internalType": "address",
                    "name": "newOwner",
                    "type": "address"
                }
            ],
            "name": "OwnershipTransferred",
            "type": "event"
        },
        {
            "anonymous": false,
            "inputs": [
                {
                    "indexed": true,
                    "internalType": "address",
                    "name": "from",
                    "type": "address"
                },
                {
                    "indexed": true,
                    "internalType": "address",
                    "name": "to",
                    "type": "address"
                },
                {
                    "indexed": false,
                    "internalType": "uint256",
                    "name": "value",
                    "type": "uint256"
                }
            ],
            "name": "Transfer",
            "type": "event"
        },
        {
            "inputs": [],
            "name": "DOMAIN_SEPARATOR",
            "outputs": [
                {
                    "internalType": "bytes32",
                    "name": "",
                    "type": "bytes32"
                }
            ],
            "stateMutability": "view",
            "type": "function"
        },
        {
            "inputs": [
                {
                    "internalType": "address",
                    "name": "owner",
                    "type": "address"
                },
                {
                    "internalType": "address",
                    "name": "spender",
                    "type": "address"
                }
            ],
            "name": "allowance",
            "outputs": [
                {
                    "internalType": "uint256",
                    "name": "",
                    "type": "uint256"
                }
            ],
            "stateMutability": "view",
            "type": "function"
        },
        {
            "inputs": [
                {
                    "internalType": "address",
                    "name": "spender",
                    "type": "address"
                },
                {
                    "internalType": "uint256",
                    "name": "value",
                    "type": "uint256"
                }
            ],
            "name": "approve",
            "outputs": [
                {
                    "internalType": "bool",
                    "name": "",
                    "type": "bool"
                }
            ],
            "stateMutability": "nonpayable",
            "type": "function"
        },
        {
            "inputs": [
                {
                    "internalType": "address",
                    "name": "account",
                    "type": "address"
                }
            ],
            "name": "balanceOf",
            "outputs": [
                {
                    "internalType": "uint256",
                    "name": "",
                    "type": "uint256"
                }
            ],
            "stateMutability": "view",
            "type": "function"
        },
        {
            "inputs": [
                {
                    "internalType": "uint256",
                    "name": "value",
                    "type": "uint256"
                }
            ],
            "name": "burn",
            "outputs": [],
            "stateMutability": "nonpayable",
            "type": "function"
        },
        {
            "inputs": [
                {
                    "internalType": "address",
                    "name": "account",
                    "type": "address"
                },
                {
                    "internalType": "uint256",
                    "name": "value",
                    "type": "uint256"
                }
            ],
            "name": "burnFrom",
            "outputs": [],
            "stateMutability": "nonpayable",
            "type": "function"
        },
        {
            "inputs": [],
            "name": "decimals",
            "outputs": [
                {
                    "internalType": "uint8",
                    "name": "",
                    "type": "uint8"
                }
            ],
            "stateMutability": "view",
            "type": "function"
        },
        {
            "inputs": [],
            "name": "eip712Domain",
            "outputs": [
                {
                    "internalType": "bytes1",
                    "name": "fields",
                    "type": "bytes1"
                },
                {
                    "internalType": "string",
                    "name": "name",
                    "type": "string"
                },
                {
                    "internalType": "string",
                    "name": "version",
                    "type": "string"
                },
                {
                    "internalType": "uint256",
                    "name": "chainId",
                    "type": "uint256"
                },
                {
                    "internalType": "address",
                    "name": "verifyingContract",
                    "type": "address"
                },
                {
                    "internalType": "bytes32",
                    "name": "salt",
                    "type": "bytes32"
                },
                {
                    "internalType": "uint256[]",
                    "name": "extensions",
                    "type": "uint256[]"
                }
            ],
            "stateMutability": "view",
            "type": "function"
        },
        {
            "inputs": [
                {
                    "internalType": "address",
                    "name": "to",
                    "type": "address"
                },
                {
                    "internalType": "uint256",
                    "name": "amount",
                    "type": "uint256"
                }
            ],
            "name": "mint",
            "outputs": [],
            "stateMutability": "nonpayable",
            "type": "function"
        },
        {
            "inputs": [],
            "name": "name",
            "outputs": [
                {
                    "internalType": "string",
                    "name": "",
                    "type": "string"
                }
            ],
            "stateMutability": "view",
            "type": "function"
        },
        {
            "inputs": [
                {
                    "internalType": "address",
                    "name": "owner",
                    "type": "address"
                }
            ],
            "name": "nonces",
            "outputs": [
                {
                    "internalType": "uint256",
                    "name": "",
                    "type": "uint256"
                }
            ],
            "stateMutability": "view",
            "type": "function"
        },
        {
            "inputs": [
                {
                    "internalType": "address[]",
                    "name": "to",
                    "type": "address[]"
                },
                {
                    "internalType": "uint256[]",
                    "name": "amount",
                    "type": "uint256[]"
                }
            ],
            "name": "offer",
            "outputs": [],
            "stateMutability": "nonpayable",
            "type": "function"
        },
        {
            "inputs": [],
            "name": "owner",
            "outputs": [
                {
                    "internalType": "address",
                    "name": "",
                    "type": "address"
                }
            ],
            "stateMutability": "view",
            "type": "function"
        },
        {
            "inputs": [
                {
                    "internalType": "address",
                    "name": "owner",
                    "type": "address"
                },
                {
                    "internalType": "address",
                    "name": "spender",
                    "type": "address"
                },
                {
                    "internalType": "uint256",
                    "name": "value",
                    "type": "uint256"
                },
                {
                    "internalType": "uint256",
                    "name": "deadline",
                    "type": "uint256"
                },
                {
                    "internalType": "uint8",
                    "name": "v",
                    "type": "uint8"
                },
                {
                    "internalType": "bytes32",
                    "name": "r",
                    "type": "bytes32"
                },
                {
                    "internalType": "bytes32",
                    "name": "s",
                    "type": "bytes32"
                }
            ],
            "name": "permit",
            "outputs": [],
            "stateMutability": "nonpayable",
            "type": "function"
        },
        {
            "inputs": [],
            "name": "renounceOwnership",
            "outputs": [],
            "stateMutability": "nonpayable",
            "type": "function"
        },
        {
            "inputs": [],
            "name": "symbol",
            "outputs": [
                {
                    "internalType": "string",
                    "name": "",
                    "type": "string"
                }
            ],
            "stateMutability": "view",
            "type": "function"
        },
        {
            "inputs": [],
            "name": "totalSupply",
            "outputs": [
                {
                    "internalType": "uint256",
                    "name": "",
                    "type": "uint256"
                }
            ],
            "stateMutability": "view",
            "type": "function"
        },
        {
            "inputs": [
                {
                    "internalType": "address",
                    "name": "to",
                    "type": "address"
                },
                {
                    "internalType": "uint256",
                    "name": "value",
                    "type": "uint256"
                }
            ],
            "name": "transfer",
            "outputs": [
                {
                    "internalType": "bool",
                    "name": "",
                    "type": "bool"
                }
            ],
            "stateMutability": "nonpayable",
            "type": "function"
        },
        {
            "inputs": [
                {
                    "internalType": "address",
                    "name": "from",
                    "type": "address"
                },
                {
                    "internalType": "address",
                    "name": "to",
                    "type": "address"
                },
                {
                    "internalType": "uint256",
                    "name": "value",
                    "type": "uint256"
                }
            ],
            "name": "transferFrom",
            "outputs": [
                {
                    "internalType": "bool",
                    "name": "",
                    "type": "bool"
                }
            ],
            "stateMutability": "nonpayable",
            "type": "function"
        },
        {
            "inputs": [
                {
                    "internalType": "address",
                    "name": "newOwner",
                    "type": "address"
                }
            ],
            "name": "transferOwnership",
            "outputs": [],
            "stateMutability": "nonpayable",
            "type": "function"
        }
    ],
    "bytecode": "0x6101606040523480156200001257600080fd5b50604051620034c9380380620034c9833981810160405281019062000038919062000811565b6040518060400160405280600781526020017f4d79546f6b656e00000000000000000000000000000000000000000000000000815250806040518060400160405280600181526020017f3100000000000000000000000000000000000000000000000000000000000000815250846040518060400160405280600981526020017f447265616d616b657200000000000000000000000000000000000000000000008152506040518060400160405280600381526020017f444d4b0000000000000000000000000000000000000000000000000000000000815250816003908162000123919062000ac8565b50806004908162000135919062000ac8565b505050600073ffffffffffffffffffffffffffffffffffffffff168173ffffffffffffffffffffffffffffffffffffffff1603620001ad5760006040517f1e4fbdf7000000000000000000000000000000000000000000000000000000008152600401620001a4919062000bc0565b60405180910390fd5b620001be81620002b460201b60201c565b50620001d56006836200037a60201b90919060201c565b6101208181525050620001f36007826200037a60201b90919060201c565b6101408181525050818051906020012060e08181525050808051906020012061010081815250504660a0818152505062000232620003d260201b60201c565b608081815250503073ffffffffffffffffffffffffffffffffffffffff1660c08173ffffffffffffffffffffffffffffffffffffffff1681525050505050620002ac82620002856200042f60201b60201c565b600a62000293919062000d6d565b83620002a0919062000dbe565b6200043860201b60201c565b50506200107c565b6000600560009054906101000a900473ffffffffffffffffffffffffffffffffffffffff16905081600560006101000a81548173ffffffffffffffffffffffffffffffffffffffff021916908373ffffffffffffffffffffffffffffffffffffffff1602179055508173ffffffffffffffffffffffffffffffffffffffff168173ffffffffffffffffffffffffffffffffffffffff167f8be0079c531659141344cd1fd0a4f28419497f9722a3daafe3b4186f6b6457e060405160405180910390a35050565b6000602083511015620003a0576200039883620004c560201b60201c565b9050620003cc565b82620003b2836200053260201b60201c565b6000019081620003c3919062000ac8565b5060ff60001b90505b92915050565b60007f8b73c3c69bb8fe3d512ecc4cf759cc79239f7b179b0ffacaa9a75d522b39400f60e0516101005146306040516020016200041495949392919062000e35565b60405160208183030381529060405280519060200120905090565b60006012905090565b600073ffffffffffffffffffffffffffffffffffffffff168273ffffffffffffffffffffffffffffffffffffffff1603620004ad5760006040517fec442f05000000000000000000000000000000000000000000000000000000008152600401620004a4919062000bc0565b60405180910390fd5b620004c1600083836200053c60201b60201c565b5050565b600080829050601f815111156200051557826040517f305a27a90000000000000000000000000000000000000000000000000000000081526004016200050c919062000f21565b60405180910390fd5b805181620005239062000f77565b60001c1760001b915050919050565b6000819050919050565b600073ffffffffffffffffffffffffffffffffffffffff168373ffffffffffffffffffffffffffffffffffffffff16036200059257806002600082825462000585919062000fe7565b9250508190555062000668565b60008060008573ffffffffffffffffffffffffffffffffffffffff1673ffffffffffffffffffffffffffffffffffffffff1681526020019081526020016000205490508181101562000621578381836040517fe450d38c000000000000000000000000000000000000000000000000000000008152600401620006189392919062001022565b60405180910390fd5b8181036000808673ffffffffffffffffffffffffffffffffffffffff1673ffffffffffffffffffffffffffffffffffffffff16815260200190815260200160002081905550505b600073ffffffffffffffffffffffffffffffffffffffff168273ffffffffffffffffffffffffffffffffffffffff1603620006b3578060026000828254039250508190555062000700565b806000808473ffffffffffffffffffffffffffffffffffffffff1673ffffffffffffffffffffffffffffffffffffffff168152602001908152602001600020600082825401925050819055505b8173ffffffffffffffffffffffffffffffffffffffff168373ffffffffffffffffffffffffffffffffffffffff167fddf252ad1be2c89b69c2b068fc378daa952ba7f163c4a11628f55a4df523b3ef836040516200075f91906200105f565b60405180910390a3505050565b600080fd5b600073ffffffffffffffffffffffffffffffffffffffff82169050919050565b60006200079e8262000771565b9050919050565b620007b08162000791565b8114620007bc57600080fd5b50565b600081519050620007d081620007a5565b92915050565b6000819050919050565b620007eb81620007d6565b8114620007f757600080fd5b50565b6000815190506200080b81620007e0565b92915050565b600080604083850312156200082b576200082a6200076c565b5b60006200083b85828601620007bf565b92505060206200084e85828601620007fa565b9150509250929050565b600081519050919050565b7f4e487b7100000000000000000000000000000000000000000000000000000000600052604160045260246000fd5b7f4e487b7100000000000000000000000000000000000000000000000000000000600052602260045260246000fd5b60006002820490506001821680620008da57607f821691505b602082108103620008f057620008ef62000892565b5b50919050565b60008190508160005260206000209050919050565b60006020601f8301049050919050565b600082821b905092915050565b6000600883026200095a7fffffffffffffffffffffffffffffffffffffffffffffffffffffffffffffffff826200091b565b6200096686836200091b565b95508019841693508086168417925050509392505050565b6000819050919050565b6000620009a9620009a36200099d84620007d6565b6200097e565b620007d6565b9050919050565b6000819050919050565b620009c58362000988565b620009dd620009d482620009b0565b84845462000928565b825550505050565b600090565b620009f4620009e5565b62000a01818484620009ba565b505050565b5b8181101562000a295762000a1d600082620009ea565b60018101905062000a07565b5050565b601f82111562000a785762000a4281620008f6565b62000a4d846200090b565b8101602085101562000a5d578190505b62000a7562000a6c856200090b565b83018262000a06565b50505b505050565b600082821c905092915050565b600062000a9d6000198460080262000a7d565b1980831691505092915050565b600062000ab8838362000a8a565b9150826002028217905092915050565b62000ad38262000858565b67ffffffffffffffff81111562000aef5762000aee62000863565b5b62000afb8254620008c1565b62000b0882828562000a2d565b600060209050601f83116001811462000b40576000841562000b2b578287015190505b62000b37858262000aaa565b86555062000ba7565b601f19841662000b5086620008f6565b60005b8281101562000b7a5784890151825560018201915060208501945060208101905062000b53565b8683101562000b9a578489015162000b96601f89168262000a8a565b8355505b6001600288020188555050505b505050505050565b62000bba8162000791565b82525050565b600060208201905062000bd7600083018462000baf565b92915050565b7f4e487b7100000000000000000000000000000000000000000000000000000000600052601160045260246000fd5b60008160011c9050919050565b6000808291508390505b600185111562000c6b5780860481111562000c435762000c4262000bdd565b5b600185161562000c535780820291505b808102905062000c638562000c0c565b945062000c23565b94509492505050565b60008262000c86576001905062000d59565b8162000c96576000905062000d59565b816001811462000caf576002811462000cba5762000cf0565b600191505062000d59565b60ff84111562000ccf5762000cce62000bdd565b5b8360020a91508482111562000ce95762000ce862000bdd565b5b5062000d59565b5060208310610133831016604e8410600b841016171562000d2a5782820a90508381111562000d245762000d2362000bdd565b5b62000d59565b62000d39848484600162000c19565b9250905081840481111562000d535762000d5262000bdd565b5b81810290505b9392505050565b600060ff82169050919050565b600062000d7a82620007d6565b915062000d878362000d60565b925062000db67fffffffffffffffffffffffffffffffffffffffffffffffffffffffffffffffff848462000c74565b905092915050565b600062000dcb82620007d6565b915062000dd883620007d6565b925082820262000de881620007d6565b9150828204841483151762000e025762000e0162000bdd565b5b5092915050565b6000819050919050565b62000e1e8162000e09565b82525050565b62000e2f81620007d6565b82525050565b600060a08201905062000e4c600083018862000e13565b62000e5b602083018762000e13565b62000e6a604083018662000e13565b62000e79606083018562000e24565b62000e88608083018462000baf565b9695505050505050565b600082825260208201905092915050565b60005b8381101562000ec357808201518184015260208101905062000ea6565b60008484015250505050565b6000601f19601f8301169050919050565b600062000eed8262000858565b62000ef9818562000e92565b935062000f0b81856020860162000ea3565b62000f168162000ecf565b840191505092915050565b6000602082019050818103600083015262000f3d818462000ee0565b905092915050565b600081519050919050565b6000819050602082019050919050565b600062000f6e825162000e09565b80915050919050565b600062000f848262000f45565b8262000f908462000f50565b905062000f9d8162000f60565b9250602082101562000fe05762000fdb7fffffffffffffffffffffffffffffffffffffffffffffffffffffffffffffffff836020036008026200091b565b831692505b5050919050565b600062000ff482620007d6565b91506200100183620007d6565b92508282019050808211156200101c576200101b62000bdd565b5b92915050565b600060608201905062001039600083018662000baf565b62001048602083018562000e24565b62001057604083018462000e24565b949350505050565b600060208201905062001076600083018462000e24565b92915050565b60805160a05160c05160e0516101005161012051610140516123f2620010d76000396000610f5a01526000610f1f0152600061146f0152600061144e01526000610bc901526000610c1f01526000610c4801526123f26000f3fe608060405234801561001057600080fd5b506004361061012c5760003560e01c806379cc6790116100ad578063a9059cbb11610071578063a9059cbb14610327578063d505accf14610357578063dd62ed3e14610373578063f0629f0f146103a3578063f2fde38b146103bf5761012c565b806379cc67901461027b5780637ecebe001461029757806384b0196e146102c75780638da5cb5b146102eb57806395d89b41146103095761012c565b80633644e515116100f45780633644e515146101eb57806340c10f191461020957806342966c681461022557806370a0823114610241578063715018a6146102715761012c565b806306fdde0314610131578063095ea7b31461014f57806318160ddd1461017f57806323b872dd1461019d578063313ce567146101cd575b600080fd5b6101396103db565b604051610146919061195c565b60405180910390f35b61016960048036038101906101649190611a26565b61046d565b6040516101769190611a81565b60405180910390f35b610187610490565b6040516101949190611aab565b60405180910390f35b6101b760048036038101906101b29190611ac6565b61049a565b6040516101c49190611a81565b60405180910390f35b6101d56104c9565b6040516101e29190611b35565b60405180910390f35b6101f36104d2565b6040516102009190611b69565b60405180910390f35b610223600480360381019061021e9190611a26565b6104e1565b005b61023f600480360381019061023a9190611b84565b6104f7565b005b61025b60048036038101906102569190611bb1565b61050b565b6040516102689190611aab565b60405180910390f35b610279610553565b005b61029560048036038101906102909190611a26565b610567565b005b6102b160048036038101906102ac9190611bb1565b610587565b6040516102be9190611aab565b60405180910390f35b6102cf610599565b6040516102e29796959493929190611ce6565b60405180910390f35b6102f3610643565b6040516103009190611d6a565b60405180910390f35b61031161066d565b60405161031e919061195c565b60405180910390f35b610341600480360381019061033c9190611a26565b6106ff565b60405161034e9190611a81565b60405180910390f35b610371600480360381019061036c9190611ddd565b610722565b005b61038d60048036038101906103889190611e7f565b61086a565b60405161039a9190611aab565b60405180910390f35b6103bd60048036038101906103b891906120ca565b6108f1565b005b6103d960048036038101906103d49190611bb1565b61099d565b005b6060600380546103ea90612171565b80601f016020809104026020016040519081016040528092919081815260200182805461041690612171565b80156104635780601f1061043857610100808354040283529160200191610463565b820191906000526020600020905b81548152906001019060200180831161044657829003601f168201915b5050505050905090565b600080610478610a23565b9050610485818585610a2b565b600191505092915050565b6000600254905090565b6000806104a5610a23565b90506104b2858285610a3d565b6104bd858585610ad1565b60019150509392505050565b60006012905090565b60006104dc610bc5565b905090565b6104e9610c7c565b6104f38282610d03565b5050565b610508610502610a23565b82610d85565b50565b60008060008373ffffffffffffffffffffffffffffffffffffffff1673ffffffffffffffffffffffffffffffffffffffff168152602001908152602001600020549050919050565b61055b610c7c565b6105656000610e07565b565b61057982610573610a23565b83610a3d565b6105838282610d85565b5050565b600061059282610ecd565b9050919050565b6000606080600080600060606105ad610f16565b6105b5610f51565b46306000801b600067ffffffffffffffff8111156105d6576105d5611ec4565b5b6040519080825280602002602001820160405280156106045781602001602082028036833780820191505090505b507f0f00000000000000000000000000000000000000000000000000000000000000959493929190965096509650965096509650965090919293949596565b6000600560009054906101000a900473ffffffffffffffffffffffffffffffffffffffff16905090565b60606004805461067c90612171565b80601f01602080910402602001604051908101604052809291908181526020018280546106a890612171565b80156106f55780601f106106ca576101008083540402835291602001916106f5565b820191906000526020600020905b8154815290600101906020018083116106d857829003601f168201915b5050505050905090565b60008061070a610a23565b9050610717818585610ad1565b600191505092915050565b8342111561076757836040517f6279130200000000000000000000000000000000000000000000000000000000815260040161075e9190611aab565b60405180910390fd5b60007f6e71edae12b1b97f4d1f60370fef10105fa2faae0126114a169c64845d6126c98888886107968c610f8c565b896040516020016107ac969594939291906121a2565b60405160208183030381529060405280519060200120905060006107cf82610fe3565b905060006107df82878787610ffd565b90508973ffffffffffffffffffffffffffffffffffffffff168173ffffffffffffffffffffffffffffffffffffffff161461085357808a6040517f4b800e4600000000000000000000000000000000000000000000000000000000815260040161084a929190612203565b60405180910390fd5b61085e8a8a8a610a2b565b50505050505050505050565b6000600160008473ffffffffffffffffffffffffffffffffffffffff1673ffffffffffffffffffffffffffffffffffffffff16815260200190815260200160002060008373ffffffffffffffffffffffffffffffffffffffff1673ffffffffffffffffffffffffffffffffffffffff16815260200190815260200160002054905092915050565b6108f9610c7c565b60008251148061090a575060008151145b15610941576040517fb4fa3fb300000000000000000000000000000000000000000000000000000000815260040160405180910390fd5b60005b82518110156109985761098b8382815181106109635761096261222c565b5b602002602001015183838151811061097e5761097d61222c565b5b6020026020010151610d03565b8080600101915050610944565b505050565b6109a5610c7c565b600073ffffffffffffffffffffffffffffffffffffffff168173ffffffffffffffffffffffffffffffffffffffff1603610a175760006040517f1e4fbdf7000000000000000000000000000000000000000000000000000000008152600401610a0e9190611d6a565b60405180910390fd5b610a2081610e07565b50565b600033905090565b610a38838383600161102d565b505050565b6000610a49848461086a565b90507fffffffffffffffffffffffffffffffffffffffffffffffffffffffffffffffff8114610acb5781811015610abb578281836040517ffb8f41b2000000000000000000000000000000000000000000000000000000008152600401610ab29392919061225b565b60405180910390fd5b610aca8484848403600061102d565b5b50505050565b600073ffffffffffffffffffffffffffffffffffffffff168373ffffffffffffffffffffffffffffffffffffffff1603610b435760006040517f96c6fd1e000000000000000000000000000000000000000000000000000000008152600401610b3a9190611d6a565b60405180910390fd5b600073ffffffffffffffffffffffffffffffffffffffff168273ffffffffffffffffffffffffffffffffffffffff1603610bb55760006040517fec442f05000000000000000000000000000000000000000000000000000000008152600401610bac9190611d6a565b60405180910390fd5b610bc0838383611204565b505050565b60007f000000000000000000000000000000000000000000000000000000000000000073ffffffffffffffffffffffffffffffffffffffff163073ffffffffffffffffffffffffffffffffffffffff16148015610c4157507f000000000000000000000000000000000000000000000000000000000000000046145b15610c6e577f00000000000000000000000000000000000000000000000000000000000000009050610c79565b610c76611429565b90505b90565b610c84610a23565b73ffffffffffffffffffffffffffffffffffffffff16610ca2610643565b73ffffffffffffffffffffffffffffffffffffffff1614610d0157610cc5610a23565b6040517f118cdaa7000000000000000000000000000000000000000000000000000000008152600401610cf89190611d6a565b60405180910390fd5b565b600073ffffffffffffffffffffffffffffffffffffffff168273ffffffffffffffffffffffffffffffffffffffff1603610d755760006040517fec442f05000000000000000000000000000000000000000000000000000000008152600401610d6c9190611d6a565b60405180910390fd5b610d8160008383611204565b5050565b600073ffffffffffffffffffffffffffffffffffffffff168273ffffffffffffffffffffffffffffffffffffffff1603610df75760006040517f96c6fd1e000000000000000000000000000000000000000000000000000000008152600401610dee9190611d6a565b60405180910390fd5b610e0382600083611204565b5050565b6000600560009054906101000a900473ffffffffffffffffffffffffffffffffffffffff16905081600560006101000a81548173ffffffffffffffffffffffffffffffffffffffff021916908373ffffffffffffffffffffffffffffffffffffffff1602179055508173ffffffffffffffffffffffffffffffffffffffff168173ffffffffffffffffffffffffffffffffffffffff167f8be0079c531659141344cd1fd0a4f28419497f9722a3daafe3b4186f6b6457e060405160405180910390a35050565b6000600860008373ffffffffffffffffffffffffffffffffffffffff1673ffffffffffffffffffffffffffffffffffffffff168152602001908152602001600020549050919050565b6060610f4c60067f00000000000000000000000000000000000000000000000000000000000000006114bf90919063ffffffff16565b905090565b6060610f8760077f00000000000000000000000000000000000000000000000000000000000000006114bf90919063ffffffff16565b905090565b6000600860008373ffffffffffffffffffffffffffffffffffffffff1673ffffffffffffffffffffffffffffffffffffffff1681526020019081526020016000206000815480929190600101919050559050919050565b6000610ff6610ff0610bc5565b8361156f565b9050919050565b60008060008061100f888888886115b0565b92509250925061101f82826116a4565b829350505050949350505050565b600073ffffffffffffffffffffffffffffffffffffffff168473ffffffffffffffffffffffffffffffffffffffff160361109f5760006040517fe602df050000000000000000000000000000000000000000000000000000000081526004016110969190611d6a565b60405180910390fd5b600073ffffffffffffffffffffffffffffffffffffffff168373ffffffffffffffffffffffffffffffffffffffff16036111115760006040517f94280d620000000000000000000000000000000000000000000000000000000081526004016111089190611d6a565b60405180910390fd5b81600160008673ffffffffffffffffffffffffffffffffffffffff1673ffffffffffffffffffffffffffffffffffffffff16815260200190815260200160002060008573ffffffffffffffffffffffffffffffffffffffff1673ffffffffffffffffffffffffffffffffffffffff1681526020019081526020016000208190555080156111fe578273ffffffffffffffffffffffffffffffffffffffff168473ffffffffffffffffffffffffffffffffffffffff167f8c5be1e5ebec7d5bd14f71427d1e84f3dd0314c0f7b2291e5b200ac8c7c3b925846040516111f59190611aab565b60405180910390a35b50505050565b600073ffffffffffffffffffffffffffffffffffffffff168373ffffffffffffffffffffffffffffffffffffffff160361125657806002600082825461124a91906122c1565b92505081905550611329565b60008060008573ffffffffffffffffffffffffffffffffffffffff1673ffffffffffffffffffffffffffffffffffffffff168152602001908152602001600020549050818110156112e2578381836040517fe450d38c0000000000000000000000000000000000000000000000000000000081526004016112d99392919061225b565b60405180910390fd5b8181036000808673ffffffffffffffffffffffffffffffffffffffff1673ffffffffffffffffffffffffffffffffffffffff16815260200190815260200160002081905550505b600073ffffffffffffffffffffffffffffffffffffffff168273ffffffffffffffffffffffffffffffffffffffff160361137257806002600082825403925050819055506113bf565b806000808473ffffffffffffffffffffffffffffffffffffffff1673ffffffffffffffffffffffffffffffffffffffff168152602001908152602001600020600082825401925050819055505b8173ffffffffffffffffffffffffffffffffffffffff168373ffffffffffffffffffffffffffffffffffffffff167fddf252ad1be2c89b69c2b068fc378daa952ba7f163c4a11628f55a4df523b3ef8360405161141c9190611aab565b60405180910390a3505050565b60007f8b73c3c69bb8fe3d512ecc4cf759cc79239f7b179b0ffacaa9a75d522b39400f7f00000000000000000000000000000000000000000000000000000000000000007f000000000000000000000000000000000000000000000000000000000000000046306040516020016114a49594939291906122f5565b60405160208183030381529060405280519060200120905090565b606060ff60001b83146114dc576114d583611808565b9050611569565b8180546114e890612171565b80601f016020809104026020016040519081016040528092919081815260200182805461151490612171565b80156115615780601f1061153657610100808354040283529160200191611561565b820191906000526020600020905b81548152906001019060200180831161154457829003601f168201915b505050505090505b92915050565b60006040517f190100000000000000000000000000000000000000000000000000000000000081528360028201528260228201526042812091505092915050565b60008060007f7fffffffffffffffffffffffffffffff5d576e7357a4501ddfe92f46681b20a08460001c11156115f057600060038592509250925061169a565b6000600188888888604051600081526020016040526040516116159493929190612348565b6020604051602081039080840390855afa158015611637573d6000803e3d6000fd5b505050602060405103519050600073ffffffffffffffffffffffffffffffffffffffff168173ffffffffffffffffffffffffffffffffffffffff160361168b57600060016000801b9350935093505061169a565b8060008060001b935093509350505b9450945094915050565b600060038111156116b8576116b761238d565b5b8260038111156116cb576116ca61238d565b5b031561180457600160038111156116e5576116e461238d565b5b8260038111156116f8576116f761238d565b5b0361172f576040517ff645eedf00000000000000000000000000000000000000000000000000000000815260040160405180910390fd5b600260038111156117435761174261238d565b5b8260038111156117565761175561238d565b5b0361179b578060001c6040517ffce698f70000000000000000000000000000000000000000000000000000000081526004016117929190611aab565b60405180910390fd5b6003808111156117ae576117ad61238d565b5b8260038111156117c1576117c061238d565b5b0361180357806040517fd78bce0c0000000000000000000000000000000000000000000000000000000081526004016117fa9190611b69565b60405180910390fd5b5b5050565b606060006118158361187c565b90506000602067ffffffffffffffff81111561183457611833611ec4565b5b6040519080825280601f01601f1916602001820160405280156118665781602001600182028036833780820191505090505b5090508181528360208201528092505050919050565b60008060ff8360001c169050601f8111156118c3576040517fb3512b0c00000000000000000000000000000000000000000000000000000000815260040160405180910390fd5b80915050919050565b600081519050919050565b600082825260208201905092915050565b60005b838110156119065780820151818401526020810190506118eb565b60008484015250505050565b6000601f19601f8301169050919050565b600061192e826118cc565b61193881856118d7565b93506119488185602086016118e8565b61195181611912565b840191505092915050565b600060208201905081810360008301526119768184611923565b905092915050565b6000604051905090565b600080fd5b600080fd5b600073ffffffffffffffffffffffffffffffffffffffff82169050919050565b60006119bd82611992565b9050919050565b6119cd816119b2565b81146119d857600080fd5b50565b6000813590506119ea816119c4565b92915050565b6000819050919050565b611a03816119f0565b8114611a0e57600080fd5b50565b600081359050611a20816119fa565b92915050565b60008060408385031215611a3d57611a3c611988565b5b6000611a4b858286016119db565b9250506020611a5c85828601611a11565b9150509250929050565b60008115159050919050565b611a7b81611a66565b82525050565b6000602082019050611a966000830184611a72565b92915050565b611aa5816119f0565b82525050565b6000602082019050611ac06000830184611a9c565b92915050565b600080600060608486031215611adf57611ade611988565b5b6000611aed868287016119db565b9350506020611afe868287016119db565b9250506040611b0f86828701611a11565b9150509250925092565b600060ff82169050919050565b611b2f81611b19565b82525050565b6000602082019050611b4a6000830184611b26565b92915050565b6000819050919050565b611b6381611b50565b82525050565b6000602082019050611b7e6000830184611b5a565b92915050565b600060208284031215611b9a57611b99611988565b5b6000611ba884828501611a11565b91505092915050565b600060208284031215611bc757611bc6611988565b5b6000611bd5848285016119db565b91505092915050565b60007fff0000000000000000000000000000000000000000000000000000000000000082169050919050565b611c1381611bde565b82525050565b611c22816119b2565b82525050565b600081519050919050565b600082825260208201905092915050565b6000819050602082019050919050565b611c5d816119f0565b82525050565b6000611c6f8383611c54565b60208301905092915050565b6000602082019050919050565b6000611c9382611c28565b611c9d8185611c33565b9350611ca883611c44565b8060005b83811015611cd9578151611cc08882611c63565b9750611ccb83611c7b565b925050600181019050611cac565b5085935050505092915050565b600060e082019050611cfb600083018a611c0a565b8181036020830152611d0d8189611923565b90508181036040830152611d218188611923565b9050611d306060830187611a9c565b611d3d6080830186611c19565b611d4a60a0830185611b5a565b81810360c0830152611d5c8184611c88565b905098975050505050505050565b6000602082019050611d7f6000830184611c19565b92915050565b611d8e81611b19565b8114611d9957600080fd5b50565b600081359050611dab81611d85565b92915050565b611dba81611b50565b8114611dc557600080fd5b50565b600081359050611dd781611db1565b92915050565b600080600080600080600060e0888a031215611dfc57611dfb611988565b5b6000611e0a8a828b016119db565b9750506020611e1b8a828b016119db565b9650506040611e2c8a828b01611a11565b9550506060611e3d8a828b01611a11565b9450506080611e4e8a828b01611d9c565b93505060a0611e5f8a828b01611dc8565b92505060c0611e708a828b01611dc8565b91505092959891949750929550565b60008060408385031215611e9657611e95611988565b5b6000611ea4858286016119db565b9250506020611eb5858286016119db565b9150509250929050565b600080fd5b7f4e487b7100000000000000000000000000000000000000000000000000000000600052604160045260246000fd5b611efc82611912565b810181811067ffffffffffffffff82111715611f1b57611f1a611ec4565b5b80604052505050565b6000611f2e61197e565b9050611f3a8282611ef3565b919050565b600067ffffffffffffffff821115611f5a57611f59611ec4565b5b602082029050602081019050919050565b600080fd5b6000611f83611f7e84611f3f565b611f24565b90508083825260208201905060208402830185811115611fa657611fa5611f6b565b5b835b81811015611fcf5780611fbb88826119db565b845260208401935050602081019050611fa8565b5050509392505050565b600082601f830112611fee57611fed611ebf565b5b8135611ffe848260208601611f70565b91505092915050565b600067ffffffffffffffff82111561202257612021611ec4565b5b602082029050602081019050919050565b600061204661204184612007565b611f24565b9050808382526020820190506020840283018581111561206957612068611f6b565b5b835b81811015612092578061207e8882611a11565b84526020840193505060208101905061206b565b5050509392505050565b600082601f8301126120b1576120b0611ebf565b5b81356120c1848260208601612033565b91505092915050565b600080604083850312156120e1576120e0611988565b5b600083013567ffffffffffffffff8111156120ff576120fe61198d565b5b61210b85828601611fd9565b925050602083013567ffffffffffffffff81111561212c5761212b61198d565b5b6121388582860161209c565b9150509250929050565b7f4e487b7100000000000000000000000000000000000000000000000000000000600052602260045260246000fd5b6000600282049050600182168061218957607f821691505b60208210810361219c5761219b612142565b5b50919050565b600060c0820190506121b76000830189611b5a565b6121c46020830188611c19565b6121d16040830187611c19565b6121de6060830186611a9c565b6121eb6080830185611a9c565b6121f860a0830184611a9c565b979650505050505050565b60006040820190506122186000830185611c19565b6122256020830184611c19565b9392505050565b7f4e487b7100000000000000000000000000000000000000000000000000000000600052603260045260246000fd5b60006060820190506122706000830186611c19565b61227d6020830185611a9c565b61228a6040830184611a9c565b949350505050565b7f4e487b7100000000000000000000000000000000000000000000000000000000600052601160045260246000fd5b60006122cc826119f0565b91506122d7836119f0565b92508282019050808211156122ef576122ee612292565b5b92915050565b600060a08201905061230a6000830188611b5a565b6123176020830187611b5a565b6123246040830186611b5a565b6123316060830185611a9c565b61233e6080830184611c19565b9695505050505050565b600060808201905061235d6000830187611b5a565b61236a6020830186611b26565b6123776040830185611b5a565b6123846060830184611b5a565b95945050505050565b7f4e487b7100000000000000000000000000000000000000000000000000000000600052602160045260246000fdfea26469706673582212208452c099e93ae4ab969ff610f9dd933987668899f611d84c91ff32fd22a4c78764736f6c63430008180033",
    "linkReferences": {},
    "deployedLinkReferences": {}
}