{
  "_format": "hh-sol-artifact-1",
  "contractName": "DreamV1",
  "sourceName": "contracts/DreamV1.sol",
  "abi": [
    {
      "inputs": [],
      "name": "BelowMinFundingAmount",
      "type": "error"
    },
    {
      "inputs": [],
      "name": "DreamDidNotReachTargetAmount",
      "type": "error"
    },
    {
      "inputs": [],
      "name": "DreamFundingEnded",
      "type": "error"
    },
    {
      "inputs": [],
      "name": "DreamStillFunding",
      "type": "error"
    },
    {
      "inputs": [],
      "name": "Forbidden",
      "type": "error"
    },
    {
      "inputs": [],
      "name": "FundingNotOpenToowner",
      "type": "error"
    },
    {
      "inputs": [],
      "name": "InvalidDeadlineTimestamp",
      "type": "error"
    },
    {
      "inputs": [],
      "name": "InvalidTargetAmount",
      "type": "error"
    },
    {
      "inputs": [],
      "name": "NothingToRefund",
      "type": "error"
    },
    {
      "anonymous": false,
      "inputs": [
        {
          "indexed": false,
          "internalType": "address",
          "name": "funder",
          "type": "address"
        },
        {
          "indexed": false,
          "internalType": "uint256",
          "name": "amount",
          "type": "uint256"
        }
      ],
      "name": "DreamFunded",
      "type": "event"
    },
    {
      "anonymous": false,
      "inputs": [
        {
          "indexed": false,
          "internalType": "address",
          "name": "funder",
          "type": "address"
        },
        {
          "indexed": false,
          "internalType": "uint256",
          "name": "amount",
          "type": "uint256"
        }
      ],
      "name": "DreamRefunded",
      "type": "event"
    },
    {
      "anonymous": false,
      "inputs": [
        {
          "indexed": false,
          "internalType": "uint256",
          "name": "minFundingAmount",
          "type": "uint256"
        }
      ],
      "name": "MinFundingAmountChanged",
      "type": "event"
    },
    {
      "inputs": [],
      "name": "admin",
      "outputs": [
        {
          "internalType": "address",
          "name": "",
          "type": "address"
        }
      ],
      "stateMutability": "view",
      "type": "function"
    },
    {
      "inputs": [],
      "name": "deadlineTimestamp",
      "outputs": [
        {
          "internalType": "uint256",
          "name": "",
          "type": "uint256"
        }
      ],
      "stateMutability": "view",
      "type": "function"
    },
    {
      "inputs": [],
      "name": "fund",
      "outputs": [],
      "stateMutability": "payable",
      "type": "function"
    },
    {
      "inputs": [
        {
          "internalType": "address",
          "name": "",
          "type": "address"
        }
      ],
      "name": "fundedAmount",
      "outputs": [
        {
          "internalType": "uint256",
          "name": "",
          "type": "uint256"
        }
      ],
      "stateMutability": "view",
      "type": "function"
    },
    {
      "inputs": [
        {
          "internalType": "uint256",
          "name": "",
          "type": "uint256"
        }
      ],
      "name": "funders",
      "outputs": [
        {
          "internalType": "address",
          "name": "",
          "type": "address"
        }
      ],
      "stateMutability": "view",
      "type": "function"
    },
    {
      "inputs": [],
      "name": "getAmount",
      "outputs": [
        {
          "internalType": "uint256",
          "name": "",
          "type": "uint256"
        }
      ],
      "stateMutability": "view",
      "type": "function"
    },
    {
      "inputs": [
        {
          "internalType": "address",
          "name": "funder",
          "type": "address"
        }
      ],
      "name": "getFundedAmount",
      "outputs": [
        {
          "internalType": "uint256",
          "name": "",
          "type": "uint256"
        }
      ],
      "stateMutability": "view",
      "type": "function"
    },
    {
      "inputs": [],
      "name": "getFunders",
      "outputs": [
        {
          "internalType": "address[]",
          "name": "",
          "type": "address[]"
        }
      ],
      "stateMutability": "view",
      "type": "function"
    },
    {
      "inputs": [],
      "name": "getFundersAndAmounts",
      "outputs": [
        {
          "internalType": "address[]",
          "name": "",
          "type": "address[]"
        },
        {
          "internalType": "uint256[]",
          "name": "",
          "type": "uint256[]"
        }
      ],
      "stateMutability": "view",
      "type": "function"
    },
    {
      "inputs": [
        {
          "internalType": "address",
          "name": "_owner",
          "type": "address"
        },
        {
          "internalType": "uint256",
          "name": "_targetAmount",
          "type": "uint256"
        },
        {
          "internalType": "uint256",
          "name": "_deadlineTimestamp",
          "type": "uint256"
        }
      ],
      "name": "initialize",
      "outputs": [],
      "stateMutability": "nonpayable",
      "type": "function"
    },
    {
      "inputs": [],
      "name": "isDreamEnded",
      "outputs": [
        {
          "internalType": "bool",
          "name": "",
          "type": "bool"
        }
      ],
      "stateMutability": "view",
      "type": "function"
    },
    {
      "inputs": [],
      "name": "isDreamFunded",
      "outputs": [
        {
          "internalType": "bool",
          "name": "",
          "type": "bool"
        }
      ],
      "stateMutability": "view",
      "type": "function"
    },
    {
      "inputs": [],
      "name": "isInitialized",
      "outputs": [
        {
          "internalType": "bool",
          "name": "",
          "type": "bool"
        }
      ],
      "stateMutability": "view",
      "type": "function"
    },
    {
      "inputs": [],
      "name": "minFundingAmount",
      "outputs": [
        {
          "internalType": "uint256",
          "name": "",
          "type": "uint256"
        }
      ],
      "stateMutability": "view",
      "type": "function"
    },
    {
      "inputs": [],
      "name": "owner",
      "outputs": [
        {
          "internalType": "address",
          "name": "",
          "type": "address"
        }
      ],
      "stateMutability": "view",
      "type": "function"
    },
    {
      "inputs": [],
      "name": "refund",
      "outputs": [],
      "stateMutability": "nonpayable",
      "type": "function"
    },
    {
      "inputs": [
        {
          "internalType": "uint256",
          "name": "_minFundingAmount",
          "type": "uint256"
        }
      ],
      "name": "setMinFundingAmount",
      "outputs": [],
      "stateMutability": "nonpayable",
      "type": "function"
    },
    {
      "inputs": [],
      "name": "targetAmount",
      "outputs": [
        {
          "internalType": "uint256",
          "name": "",
          "type": "uint256"
        }
      ],
      "stateMutability": "view",
      "type": "function"
    },
    {
      "inputs": [],
      "name": "withdraw",
      "outputs": [],
      "stateMutability": "nonpayable",
      "type": "function"
    },
    {
      "stateMutability": "payable",
      "type": "receive"
    }
  ],
  "bytecode": "0x608060405234801561001057600080fd5b506116c7806100206000396000f3fe6080604052600436106101185760003560e01c8063c791316e116100a0578063de8551ce11610064578063de8551ce14610360578063e5eece801461039d578063ea63a044146103c6578063f6d8414f146103f1578063f851a4401461041c57610127565b8063c791316e14610276578063c97c346e146102a1578063d321fe29146102cd578063d9ce8140146102f8578063dc0d3dff1461032357610127565b8063590e1ae3116100e7578063590e1ae3146101d65780637a1ac61e146101ed5780638da5cb5b14610216578063953b8fb814610241578063b60d42881461026c57610127565b8063160682541461012c578063392e53cd146101575780633ccfd60b146101825780634099d0331461019957610127565b3661012757610125610447565b005b600080fd5b34801561013857600080fd5b506101416105e2565b60405161014e9190611189565b60405180910390f35b34801561016357600080fd5b5061016c6105ee565b6040516101799190611189565b60405180910390f35b34801561018e57600080fd5b50610197610601565b005b3480156101a557600080fd5b506101c060048036038101906101bb9190611207565b61077b565b6040516101cd919061124d565b60405180910390f35b3480156101e257600080fd5b506101eb610793565b005b3480156101f957600080fd5b50610214600480360381019061020f9190611294565b610963565b005b34801561022257600080fd5b5061022b610b32565b60405161023891906112f6565b60405180910390f35b34801561024d57600080fd5b50610256610b58565b604051610263919061124d565b60405180910390f35b610274610447565b005b34801561028257600080fd5b5061028b610b5e565b604051610298919061124d565b60405180910390f35b3480156102ad57600080fd5b506102b6610b64565b6040516102c492919061148d565b60405180910390f35b3480156102d957600080fd5b506102e2610d08565b6040516102ef919061124d565b60405180910390f35b34801561030457600080fd5b5061030d610d10565b60405161031a9190611189565b60405180910390f35b34801561032f57600080fd5b5061034a600480360381019061034591906114c4565b610d1c565b60405161035791906112f6565b60405180910390f35b34801561036c57600080fd5b5061038760048036038101906103829190611207565b610d5b565b604051610394919061124d565b60405180910390f35b3480156103a957600080fd5b506103c460048036038101906103bf91906114c4565b610da4565b005b3480156103d257600080fd5b506103db610e6e565b6040516103e891906114f1565b60405180910390f35b3480156103fd57600080fd5b50610406610efc565b604051610413919061124d565b60405180910390f35b34801561042857600080fd5b50610431610f02565b60405161043e91906112f6565b60405180910390f35b600154421115610483576040517fdd4225c100000000000000000000000000000000000000000000000000000000815260040160405180910390fd5b6002543410156104bf576040517f822a659700000000000000000000000000000000000000000000000000000000815260040160405180910390fd5b600360019054906101000a900473ffffffffffffffffffffffffffffffffffffffff1673ffffffffffffffffffffffffffffffffffffffff163373ffffffffffffffffffffffffffffffffffffffff1603610546576040517f3b78c32000000000000000000000000000000000000000000000000000000000815260040160405180910390fd5b34600660003373ffffffffffffffffffffffffffffffffffffffff1673ffffffffffffffffffffffffffffffffffffffff16815260200190815260200160002060008282546105959190611542565b925050819055506105a7600533610f28565b7f5612f4f3db8c9ba7c03733c5262e76bd369d4506c0fcc2d447830f01df8b970133346040516105d8929190611576565b60405180910390a1565b60008054471015905090565b600360009054906101000a900460ff1681565b600360019054906101000a900473ffffffffffffffffffffffffffffffffffffffff1673ffffffffffffffffffffffffffffffffffffffff163373ffffffffffffffffffffffffffffffffffffffff1614610688576040517fee90c46800000000000000000000000000000000000000000000000000000000815260040160405180910390fd5b60015442116106c3576040517fc657ce9c00000000000000000000000000000000000000000000000000000000815260040160405180910390fd5b6106cb6105e2565b610701576040517f2e45de4100000000000000000000000000000000000000000000000000000000815260040160405180910390fd5b610709611022565b506000479050600360019054906101000a900473ffffffffffffffffffffffffffffffffffffffff1673ffffffffffffffffffffffffffffffffffffffff166108fc829081150290604051600060405180830381858888f19350505050158015610777573d6000803e3d6000fd5b5050565b60066020528060005260406000206000915090505481565b60015442116107ce576040517fc657ce9c00000000000000000000000000000000000000000000000000000000815260040160405180910390fd5b6000600660003373ffffffffffffffffffffffffffffffffffffffff1673ffffffffffffffffffffffffffffffffffffffff168152602001908152602001600020541480610820575061081f6105e2565b5b15610857576040517ff76aef6500000000000000000000000000000000000000000000000000000000815260040160405180910390fd5b6000600660003373ffffffffffffffffffffffffffffffffffffffff1673ffffffffffffffffffffffffffffffffffffffff1681526020019081526020016000205490506000600660003373ffffffffffffffffffffffffffffffffffffffff1673ffffffffffffffffffffffffffffffffffffffff168152602001908152602001600020819055503373ffffffffffffffffffffffffffffffffffffffff166108fc829081150290604051600060405180830381858888f19350505050158015610926573d6000803e3d6000fd5b507fa2312837454a91ed2757d3153e8a2a1be98a24d9402969e78f4f11315bd70d353382604051610958929190611576565b60405180910390a150565b600360009054906101000a900460ff16156109aa576040517fee90c46800000000000000000000000000000000000000000000000000000000815260040160405180910390fd5b3373ffffffffffffffffffffffffffffffffffffffff168373ffffffffffffffffffffffffffffffffffffffff1603610a0f576040517fee90c46800000000000000000000000000000000000000000000000000000000815260040160405180910390fd5b60008203610a49576040517f9af6701600000000000000000000000000000000000000000000000000000000815260040160405180910390fd5b428111610a82576040517fec5cfe2d00000000000000000000000000000000000000000000000000000000815260040160405180910390fd5b33600460006101000a81548173ffffffffffffffffffffffffffffffffffffffff021916908373ffffffffffffffffffffffffffffffffffffffff16021790555082600360016101000a81548173ffffffffffffffffffffffffffffffffffffffff021916908373ffffffffffffffffffffffffffffffffffffffff16021790555081600081905550806001819055506001600360006101000a81548160ff021916908315150217905550505050565b600360019054906101000a900473ffffffffffffffffffffffffffffffffffffffff1681565b60005481565b60025481565b606080600060058054905067ffffffffffffffff811115610b8857610b8761159f565b5b604051908082528060200260200182016040528015610bb65781602001602082028036833780820191505090505b50905060005b600580549050811015610c73576006600060058381548110610be157610be06115ce565b5b9060005260206000200160009054906101000a900473ffffffffffffffffffffffffffffffffffffffff1673ffffffffffffffffffffffffffffffffffffffff1673ffffffffffffffffffffffffffffffffffffffff16815260200190815260200160002054828281518110610c5a57610c596115ce565b5b6020026020010181815250508080600101915050610bbc565b5060058181805480602002602001604051908101604052809291908181526020018280548015610cf857602002820191906000526020600020905b8160009054906101000a900473ffffffffffffffffffffffffffffffffffffffff1673ffffffffffffffffffffffffffffffffffffffff1681526020019060010190808311610cae575b5050505050915092509250509091565b600047905090565b60006001544211905090565b60058181548110610d2c57600080fd5b906000526020600020016000915054906101000a900473ffffffffffffffffffffffffffffffffffffffff1681565b6000600660008373ffffffffffffffffffffffffffffffffffffffff1673ffffffffffffffffffffffffffffffffffffffff168152602001908152602001600020549050919050565b600360019054906101000a900473ffffffffffffffffffffffffffffffffffffffff1673ffffffffffffffffffffffffffffffffffffffff163373ffffffffffffffffffffffffffffffffffffffff1614610e2b576040517fee90c46800000000000000000000000000000000000000000000000000000000815260040160405180910390fd5b806002819055507f3929c16719de84c2e25e1a6bb814b5275a75ff8674d0d7b91c93173a47770882600254604051610e63919061124d565b60405180910390a150565b60606005805480602002602001604051908101604052809291908181526020018280548015610ef257602002820191906000526020600020905b8160009054906101000a900473ffffffffffffffffffffffffffffffffffffffff1673ffffffffffffffffffffffffffffffffffffffff1681526020019060010190808311610ea8575b5050505050905090565b60015481565b600460009054906101000a900473ffffffffffffffffffffffffffffffffffffffff1681565b610fb782805480602002602001604051908101604052809291908181526020018280548015610fac57602002820191906000526020600020905b8160009054906101000a900473ffffffffffffffffffffffffffffffffffffffff1673ffffffffffffffffffffffffffffffffffffffff1681526020019060010190808311610f62575b5050505050826110a3565b61101e5781819080600181540180825580915050600190039060005260206000200160009091909190916101000a81548173ffffffffffffffffffffffffffffffffffffffff021916908373ffffffffffffffffffffffffffffffffffffffff1602179055505b5050565b60008061103147600054611124565b9050600460009054906101000a900473ffffffffffffffffffffffffffffffffffffffff1673ffffffffffffffffffffffffffffffffffffffff166108fc829081150290604051600060405180830381858888f1935050505015801561109b573d6000803e3d6000fd5b508091505090565b600080600090505b8351811015611118578273ffffffffffffffffffffffffffffffffffffffff168482815181106110de576110dd6115ce565b5b602002602001015173ffffffffffffffffffffffffffffffffffffffff160361110b57600191505061111e565b80806001019150506110ab565b50600090505b92915050565b600080828461113391906115fd565b905060006064846111449190611660565b905060006032836111559190611660565b905080826111639190611542565b935050505092915050565b60008115159050919050565b6111838161116e565b82525050565b600060208201905061119e600083018461117a565b92915050565b600080fd5b600073ffffffffffffffffffffffffffffffffffffffff82169050919050565b60006111d4826111a9565b9050919050565b6111e4816111c9565b81146111ef57600080fd5b50565b600081359050611201816111db565b92915050565b60006020828403121561121d5761121c6111a4565b5b600061122b848285016111f2565b91505092915050565b6000819050919050565b61124781611234565b82525050565b6000602082019050611262600083018461123e565b92915050565b61127181611234565b811461127c57600080fd5b50565b60008135905061128e81611268565b92915050565b6000806000606084860312156112ad576112ac6111a4565b5b60006112bb868287016111f2565b93505060206112cc8682870161127f565b92505060406112dd8682870161127f565b9150509250925092565b6112f0816111c9565b82525050565b600060208201905061130b60008301846112e7565b92915050565b600081519050919050565b600082825260208201905092915050565b6000819050602082019050919050565b611346816111c9565b82525050565b6000611358838361133d565b60208301905092915050565b6000602082019050919050565b600061137c82611311565b611386818561131c565b93506113918361132d565b8060005b838110156113c25781516113a9888261134c565b97506113b483611364565b925050600181019050611395565b5085935050505092915050565b600081519050919050565b600082825260208201905092915050565b6000819050602082019050919050565b61140481611234565b82525050565b600061141683836113fb565b60208301905092915050565b6000602082019050919050565b600061143a826113cf565b61144481856113da565b935061144f836113eb565b8060005b83811015611480578151611467888261140a565b975061147283611422565b925050600181019050611453565b5085935050505092915050565b600060408201905081810360008301526114a78185611371565b905081810360208301526114bb818461142f565b90509392505050565b6000602082840312156114da576114d96111a4565b5b60006114e88482850161127f565b91505092915050565b6000602082019050818103600083015261150b8184611371565b905092915050565b7f4e487b7100000000000000000000000000000000000000000000000000000000600052601160045260246000fd5b600061154d82611234565b915061155883611234565b92508282019050808211156115705761156f611513565b5b92915050565b600060408201905061158b60008301856112e7565b611598602083018461123e565b9392505050565b7f4e487b7100000000000000000000000000000000000000000000000000000000600052604160045260246000fd5b7f4e487b7100000000000000000000000000000000000000000000000000000000600052603260045260246000fd5b600061160882611234565b915061161383611234565b925082820390508181111561162b5761162a611513565b5b92915050565b7f4e487b7100000000000000000000000000000000000000000000000000000000600052601260045260246000fd5b600061166b82611234565b915061167683611234565b92508261168657611685611631565b5b82820490509291505056fea264697066735822122066b7f6c82461c9aa326bff60f1bcfee417256462617973ea32dfffe8126469a464736f6c63430008180033",
  "linkReferences": {},
  "deployedLinkReferences": {}
}