{
  "_format": "hh-sol-artifact-1",
  "contractName": "DreamV1",
  "sourceName": "contracts/DreamV1.sol",
  "abi": [
    {
      "inputs": [],
      "name": "BelowMinFundingAmount",
      "type": "error"
    },
    {
      "inputs": [],
      "name": "DreamDidNotReachTargetAmount",
      "type": "error"
    },
    {
      "inputs": [],
      "name": "DreamFundingEnded",
      "type": "error"
    },
    {
      "inputs": [],
      "name": "DreamStillFunding",
      "type": "error"
    },
    {
      "inputs": [],
      "name": "Forbidden",
      "type": "error"
    },
    {
      "inputs": [],
      "name": "FundingNotOpenToowner",
      "type": "error"
    },
    {
      "inputs": [],
      "name": "InvalidDeadlineTimestamp",
      "type": "error"
    },
    {
      "inputs": [],
      "name": "InvalidTargetAmount",
      "type": "error"
    },
    {
      "inputs": [],
      "name": "NothingToRefund",
      "type": "error"
    },
    {
      "anonymous": false,
      "inputs": [
        {
          "indexed": false,
          "internalType": "address",
          "name": "funder",
          "type": "address"
        },
        {
          "indexed": false,
          "internalType": "uint256",
          "name": "amount",
          "type": "uint256"
        }
      ],
      "name": "DreamFunded",
      "type": "event"
    },
    {
      "anonymous": false,
      "inputs": [
        {
          "indexed": false,
          "internalType": "address",
          "name": "funder",
          "type": "address"
        },
        {
          "indexed": false,
          "internalType": "uint256",
          "name": "amount",
          "type": "uint256"
        }
      ],
      "name": "DreamRefunded",
      "type": "event"
    },
    {
      "anonymous": false,
      "inputs": [
        {
          "indexed": false,
          "internalType": "uint256",
          "name": "minFundingAmount",
          "type": "uint256"
        }
      ],
      "name": "MinFundingAmountChanged",
      "type": "event"
    },
    {
      "inputs": [],
      "name": "admin",
      "outputs": [
        {
          "internalType": "address",
          "name": "",
          "type": "address"
        }
      ],
      "stateMutability": "view",
      "type": "function"
    },
    {
      "inputs": [],
      "name": "deadlineTimestamp",
      "outputs": [
        {
          "internalType": "uint256",
          "name": "",
          "type": "uint256"
        }
      ],
      "stateMutability": "view",
      "type": "function"
    },
    {
      "inputs": [],
      "name": "fund",
      "outputs": [],
      "stateMutability": "payable",
      "type": "function"
    },
    {
      "inputs": [
        {
          "internalType": "address",
          "name": "",
          "type": "address"
        }
      ],
      "name": "fundedAmount",
      "outputs": [
        {
          "internalType": "uint256",
          "name": "",
          "type": "uint256"
        }
      ],
      "stateMutability": "view",
      "type": "function"
    },
    {
      "inputs": [
        {
          "internalType": "uint256",
          "name": "",
          "type": "uint256"
        }
      ],
      "name": "funders",
      "outputs": [
        {
          "internalType": "address",
          "name": "",
          "type": "address"
        }
      ],
      "stateMutability": "view",
      "type": "function"
    },
    {
      "inputs": [],
      "name": "getAmount",
      "outputs": [
        {
          "internalType": "uint256",
          "name": "",
          "type": "uint256"
        }
      ],
      "stateMutability": "view",
      "type": "function"
    },
    {
      "inputs": [
        {
          "internalType": "address",
          "name": "funder",
          "type": "address"
        }
      ],
      "name": "getFundedAmount",
      "outputs": [
        {
          "internalType": "uint256",
          "name": "",
          "type": "uint256"
        }
      ],
      "stateMutability": "view",
      "type": "function"
    },
    {
      "inputs": [],
      "name": "getFunders",
      "outputs": [
        {
          "internalType": "address[]",
          "name": "",
          "type": "address[]"
        }
      ],
      "stateMutability": "view",
      "type": "function"
    },
    {
      "inputs": [
        {
          "internalType": "address",
          "name": "_owner",
          "type": "address"
        },
        {
          "internalType": "uint256",
          "name": "_targetAmount",
          "type": "uint256"
        },
        {
          "internalType": "uint256",
          "name": "_deadlineTimestamp",
          "type": "uint256"
        }
      ],
      "name": "initialize",
      "outputs": [],
      "stateMutability": "nonpayable",
      "type": "function"
    },
    {
      "inputs": [],
      "name": "isDreamEnded",
      "outputs": [
        {
          "internalType": "bool",
          "name": "",
          "type": "bool"
        }
      ],
      "stateMutability": "view",
      "type": "function"
    },
    {
      "inputs": [],
      "name": "isDreamFunded",
      "outputs": [
        {
          "internalType": "bool",
          "name": "",
          "type": "bool"
        }
      ],
      "stateMutability": "view",
      "type": "function"
    },
    {
      "inputs": [],
      "name": "isInitialized",
      "outputs": [
        {
          "internalType": "bool",
          "name": "",
          "type": "bool"
        }
      ],
      "stateMutability": "view",
      "type": "function"
    },
    {
      "inputs": [],
      "name": "minFundingAmount",
      "outputs": [
        {
          "internalType": "uint256",
          "name": "",
          "type": "uint256"
        }
      ],
      "stateMutability": "view",
      "type": "function"
    },
    {
      "inputs": [],
      "name": "owner",
      "outputs": [
        {
          "internalType": "address",
          "name": "",
          "type": "address"
        }
      ],
      "stateMutability": "view",
      "type": "function"
    },
    {
      "inputs": [],
      "name": "refund",
      "outputs": [],
      "stateMutability": "nonpayable",
      "type": "function"
    },
    {
      "inputs": [
        {
          "internalType": "uint256",
          "name": "_minFundingAmount",
          "type": "uint256"
        }
      ],
      "name": "setMinFundingAmount",
      "outputs": [],
      "stateMutability": "nonpayable",
      "type": "function"
    },
    {
      "inputs": [],
      "name": "targetAmount",
      "outputs": [
        {
          "internalType": "uint256",
          "name": "",
          "type": "uint256"
        }
      ],
      "stateMutability": "view",
      "type": "function"
    },
    {
      "inputs": [],
      "name": "withdraw",
      "outputs": [],
      "stateMutability": "nonpayable",
      "type": "function"
    },
    {
      "stateMutability": "payable",
      "type": "receive"
    }
  ],
  "bytecode": "0x608060405234801561001057600080fd5b506113c8806100206000396000f3fe60806040526004361061010d5760003560e01c8063c791316e11610095578063de8551ce11610064578063de8551ce14610329578063e5eece8014610366578063ea63a0441461038f578063f6d8414f146103ba578063f851a440146103e55761011c565b8063c791316e1461026b578063d321fe2914610296578063d9ce8140146102c1578063dc0d3dff146102ec5761011c565b8063590e1ae3116100dc578063590e1ae3146101cb5780637a1ac61e146101e25780638da5cb5b1461020b578063953b8fb814610236578063b60d4288146102615761011c565b80631606825414610121578063392e53cd1461014c5780633ccfd60b146101775780634099d0331461018e5761011c565b3661011c5761011a610410565b005b600080fd5b34801561012d57600080fd5b506101366105ab565b6040516101439190610fae565b60405180910390f35b34801561015857600080fd5b506101616105b7565b60405161016e9190610fae565b60405180910390f35b34801561018357600080fd5b5061018c6105ca565b005b34801561019a57600080fd5b506101b560048036038101906101b0919061102c565b610744565b6040516101c29190611072565b60405180910390f35b3480156101d757600080fd5b506101e061075c565b005b3480156101ee57600080fd5b50610209600480360381019061020491906110b9565b61092c565b005b34801561021757600080fd5b50610220610afb565b60405161022d919061111b565b60405180910390f35b34801561024257600080fd5b5061024b610b21565b6040516102589190611072565b60405180910390f35b610269610410565b005b34801561027757600080fd5b50610280610b27565b60405161028d9190611072565b60405180910390f35b3480156102a257600080fd5b506102ab610b2d565b6040516102b89190611072565b60405180910390f35b3480156102cd57600080fd5b506102d6610b35565b6040516102e39190610fae565b60405180910390f35b3480156102f857600080fd5b50610313600480360381019061030e9190611136565b610b41565b604051610320919061111b565b60405180910390f35b34801561033557600080fd5b50610350600480360381019061034b919061102c565b610b80565b60405161035d9190611072565b60405180910390f35b34801561037257600080fd5b5061038d60048036038101906103889190611136565b610bc9565b005b34801561039b57600080fd5b506103a4610c93565b6040516103b19190611221565b60405180910390f35b3480156103c657600080fd5b506103cf610d21565b6040516103dc9190611072565b60405180910390f35b3480156103f157600080fd5b506103fa610d27565b604051610407919061111b565b60405180910390f35b60015442111561044c576040517fdd4225c100000000000000000000000000000000000000000000000000000000815260040160405180910390fd5b600254341015610488576040517f822a659700000000000000000000000000000000000000000000000000000000815260040160405180910390fd5b600360019054906101000a900473ffffffffffffffffffffffffffffffffffffffff1673ffffffffffffffffffffffffffffffffffffffff163373ffffffffffffffffffffffffffffffffffffffff160361050f576040517f3b78c32000000000000000000000000000000000000000000000000000000000815260040160405180910390fd5b34600660003373ffffffffffffffffffffffffffffffffffffffff1673ffffffffffffffffffffffffffffffffffffffff168152602001908152602001600020600082825461055e9190611272565b92505081905550610570600533610d4d565b7f5612f4f3db8c9ba7c03733c5262e76bd369d4506c0fcc2d447830f01df8b970133346040516105a19291906112a6565b60405180910390a1565b60008054471015905090565b600360009054906101000a900460ff1681565b600360019054906101000a900473ffffffffffffffffffffffffffffffffffffffff1673ffffffffffffffffffffffffffffffffffffffff163373ffffffffffffffffffffffffffffffffffffffff1614610651576040517fee90c46800000000000000000000000000000000000000000000000000000000815260040160405180910390fd5b600154421161068c576040517fc657ce9c00000000000000000000000000000000000000000000000000000000815260040160405180910390fd5b6106946105ab565b6106ca576040517f2e45de4100000000000000000000000000000000000000000000000000000000815260040160405180910390fd5b6106d2610e47565b506000479050600360019054906101000a900473ffffffffffffffffffffffffffffffffffffffff1673ffffffffffffffffffffffffffffffffffffffff166108fc829081150290604051600060405180830381858888f19350505050158015610740573d6000803e3d6000fd5b5050565b60066020528060005260406000206000915090505481565b6001544211610797576040517fc657ce9c00000000000000000000000000000000000000000000000000000000815260040160405180910390fd5b6000600660003373ffffffffffffffffffffffffffffffffffffffff1673ffffffffffffffffffffffffffffffffffffffff1681526020019081526020016000205414806107e957506107e86105ab565b5b15610820576040517ff76aef6500000000000000000000000000000000000000000000000000000000815260040160405180910390fd5b6000600660003373ffffffffffffffffffffffffffffffffffffffff1673ffffffffffffffffffffffffffffffffffffffff1681526020019081526020016000205490506000600660003373ffffffffffffffffffffffffffffffffffffffff1673ffffffffffffffffffffffffffffffffffffffff168152602001908152602001600020819055503373ffffffffffffffffffffffffffffffffffffffff166108fc829081150290604051600060405180830381858888f193505050501580156108ef573d6000803e3d6000fd5b507fa2312837454a91ed2757d3153e8a2a1be98a24d9402969e78f4f11315bd70d3533826040516109219291906112a6565b60405180910390a150565b600360009054906101000a900460ff1615610973576040517fee90c46800000000000000000000000000000000000000000000000000000000815260040160405180910390fd5b3373ffffffffffffffffffffffffffffffffffffffff168373ffffffffffffffffffffffffffffffffffffffff16036109d8576040517fee90c46800000000000000000000000000000000000000000000000000000000815260040160405180910390fd5b60008203610a12576040517f9af6701600000000000000000000000000000000000000000000000000000000815260040160405180910390fd5b428111610a4b576040517fec5cfe2d00000000000000000000000000000000000000000000000000000000815260040160405180910390fd5b33600460006101000a81548173ffffffffffffffffffffffffffffffffffffffff021916908373ffffffffffffffffffffffffffffffffffffffff16021790555082600360016101000a81548173ffffffffffffffffffffffffffffffffffffffff021916908373ffffffffffffffffffffffffffffffffffffffff16021790555081600081905550806001819055506001600360006101000a81548160ff021916908315150217905550505050565b600360019054906101000a900473ffffffffffffffffffffffffffffffffffffffff1681565b60005481565b60025481565b600047905090565b60006001544211905090565b60058181548110610b5157600080fd5b906000526020600020016000915054906101000a900473ffffffffffffffffffffffffffffffffffffffff1681565b6000600660008373ffffffffffffffffffffffffffffffffffffffff1673ffffffffffffffffffffffffffffffffffffffff168152602001908152602001600020549050919050565b600360019054906101000a900473ffffffffffffffffffffffffffffffffffffffff1673ffffffffffffffffffffffffffffffffffffffff163373ffffffffffffffffffffffffffffffffffffffff1614610c50576040517fee90c46800000000000000000000000000000000000000000000000000000000815260040160405180910390fd5b806002819055507f3929c16719de84c2e25e1a6bb814b5275a75ff8674d0d7b91c93173a47770882600254604051610c889190611072565b60405180910390a150565b60606005805480602002602001604051908101604052809291908181526020018280548015610d1757602002820191906000526020600020905b8160009054906101000a900473ffffffffffffffffffffffffffffffffffffffff1673ffffffffffffffffffffffffffffffffffffffff1681526020019060010190808311610ccd575b5050505050905090565b60015481565b600460009054906101000a900473ffffffffffffffffffffffffffffffffffffffff1681565b610ddc82805480602002602001604051908101604052809291908181526020018280548015610dd157602002820191906000526020600020905b8160009054906101000a900473ffffffffffffffffffffffffffffffffffffffff1673ffffffffffffffffffffffffffffffffffffffff1681526020019060010190808311610d87575b505050505082610ec8565b610e435781819080600181540180825580915050600190039060005260206000200160009091909190916101000a81548173ffffffffffffffffffffffffffffffffffffffff021916908373ffffffffffffffffffffffffffffffffffffffff1602179055505b5050565b600080610e5647600054610f49565b9050600460009054906101000a900473ffffffffffffffffffffffffffffffffffffffff1673ffffffffffffffffffffffffffffffffffffffff166108fc829081150290604051600060405180830381858888f19350505050158015610ec0573d6000803e3d6000fd5b508091505090565b600080600090505b8351811015610f3d578273ffffffffffffffffffffffffffffffffffffffff16848281518110610f0357610f026112cf565b5b602002602001015173ffffffffffffffffffffffffffffffffffffffff1603610f30576001915050610f43565b8080600101915050610ed0565b50600090505b92915050565b6000808284610f5891906112fe565b90506000606484610f699190611361565b90506000603283610f7a9190611361565b90508082610f889190611272565b935050505092915050565b60008115159050919050565b610fa881610f93565b82525050565b6000602082019050610fc36000830184610f9f565b92915050565b600080fd5b600073ffffffffffffffffffffffffffffffffffffffff82169050919050565b6000610ff982610fce565b9050919050565b61100981610fee565b811461101457600080fd5b50565b60008135905061102681611000565b92915050565b60006020828403121561104257611041610fc9565b5b600061105084828501611017565b91505092915050565b6000819050919050565b61106c81611059565b82525050565b60006020820190506110876000830184611063565b92915050565b61109681611059565b81146110a157600080fd5b50565b6000813590506110b38161108d565b92915050565b6000806000606084860312156110d2576110d1610fc9565b5b60006110e086828701611017565b93505060206110f1868287016110a4565b9250506040611102868287016110a4565b9150509250925092565b61111581610fee565b82525050565b6000602082019050611130600083018461110c565b92915050565b60006020828403121561114c5761114b610fc9565b5b600061115a848285016110a4565b91505092915050565b600081519050919050565b600082825260208201905092915050565b6000819050602082019050919050565b61119881610fee565b82525050565b60006111aa838361118f565b60208301905092915050565b6000602082019050919050565b60006111ce82611163565b6111d8818561116e565b93506111e38361117f565b8060005b838110156112145781516111fb888261119e565b9750611206836111b6565b9250506001810190506111e7565b5085935050505092915050565b6000602082019050818103600083015261123b81846111c3565b905092915050565b7f4e487b7100000000000000000000000000000000000000000000000000000000600052601160045260246000fd5b600061127d82611059565b915061128883611059565b92508282019050808211156112a05761129f611243565b5b92915050565b60006040820190506112bb600083018561110c565b6112c86020830184611063565b9392505050565b7f4e487b7100000000000000000000000000000000000000000000000000000000600052603260045260246000fd5b600061130982611059565b915061131483611059565b925082820390508181111561132c5761132b611243565b5b92915050565b7f4e487b7100000000000000000000000000000000000000000000000000000000600052601260045260246000fd5b600061136c82611059565b915061137783611059565b92508261138757611386611332565b5b82820490509291505056fea2646970667358221220365ddeec70af07e687175ed20e9ec031057fcabfc75031614e3eb79ded4a8cc664736f6c63430008180033",
  "linkReferences": {},
  "deployedLinkReferences": {}
}