{
    "_format": "hh-sol-artifact-1",
    "contractName": "DreamV1",
    "sourceName": "contracts/DreamV1.sol",
    "abi": [
        {
            "inputs": [],
            "name": "AlreadyWithdrawn",
            "type": "error"
        },
        {
            "inputs": [],
            "name": "BelowMinFundingAmount",
            "type": "error"
        },
        {
            "inputs": [],
            "name": "DreamDidNotReachTargetAmount",
            "type": "error"
        },
        {
            "inputs": [],
            "name": "DreamFundingEnded",
            "type": "error"
        },
        {
            "inputs": [],
            "name": "DreamStillFunding",
            "type": "error"
        },
        {
            "inputs": [],
            "name": "Forbidden",
            "type": "error"
        },
        {
            "inputs": [],
            "name": "FundingNotOpenToowner",
            "type": "error"
        },
        {
            "inputs": [],
            "name": "InvalidDeadlineTimestamp",
            "type": "error"
        },
        {
            "inputs": [],
            "name": "InvalidTargetAmount",
            "type": "error"
        },
        {
            "inputs": [],
            "name": "NothingToRefund",
            "type": "error"
        },
        {
            "anonymous": false,
            "inputs": [
                {
                    "indexed": false,
                    "internalType": "address",
                    "name": "funder",
                    "type": "address"
                },
                {
                    "indexed": false,
                    "internalType": "uint256",
                    "name": "amount",
                    "type": "uint256"
                }
            ],
            "name": "DreamFunded",
            "type": "event"
        },
        {
            "anonymous": false,
            "inputs": [
                {
                    "indexed": false,
                    "internalType": "address",
                    "name": "funder",
                    "type": "address"
                },
                {
                    "indexed": false,
                    "internalType": "uint256",
                    "name": "amount",
                    "type": "uint256"
                }
            ],
            "name": "DreamRefunded",
            "type": "event"
        },
        {
            "anonymous": false,
            "inputs": [
                {
                    "indexed": false,
                    "internalType": "uint256",
                    "name": "minFundingAmount",
                    "type": "uint256"
                }
            ],
            "name": "MinFundingAmountChanged",
            "type": "event"
        },
        {
            "inputs": [],
            "name": "admin",
            "outputs": [
                {
                    "internalType": "address",
                    "name": "",
                    "type": "address"
                }
            ],
            "stateMutability": "view",
            "type": "function"
        },
        {
            "inputs": [],
            "name": "deadlineTimestamp",
            "outputs": [
                {
                    "internalType": "uint256",
                    "name": "",
                    "type": "uint256"
                }
            ],
            "stateMutability": "view",
            "type": "function"
        },
        {
            "inputs": [],
            "name": "fund",
            "outputs": [],
            "stateMutability": "payable",
            "type": "function"
        },
        {
            "inputs": [
                {
                    "internalType": "address",
                    "name": "",
                    "type": "address"
                }
            ],
            "name": "fundedAmount",
            "outputs": [
                {
                    "internalType": "uint256",
                    "name": "",
                    "type": "uint256"
                }
            ],
            "stateMutability": "view",
            "type": "function"
        },
        {
            "inputs": [
                {
                    "internalType": "uint256",
                    "name": "",
                    "type": "uint256"
                }
            ],
            "name": "funders",
            "outputs": [
                {
                    "internalType": "address",
                    "name": "",
                    "type": "address"
                }
            ],
            "stateMutability": "view",
            "type": "function"
        },
        {
            "inputs": [],
            "name": "getAmount",
            "outputs": [
                {
                    "internalType": "uint256",
                    "name": "",
                    "type": "uint256"
                }
            ],
            "stateMutability": "view",
            "type": "function"
        },
        {
            "inputs": [
                {
                    "internalType": "address",
                    "name": "funder",
                    "type": "address"
                }
            ],
            "name": "getFundedAmount",
            "outputs": [
                {
                    "internalType": "uint256",
                    "name": "",
                    "type": "uint256"
                }
            ],
            "stateMutability": "view",
            "type": "function"
        },
        {
            "inputs": [],
            "name": "getFunders",
            "outputs": [
                {
                    "internalType": "address[]",
                    "name": "",
                    "type": "address[]"
                }
            ],
            "stateMutability": "view",
            "type": "function"
        },
        {
            "inputs": [],
            "name": "getFundersAndAmounts",
            "outputs": [
                {
                    "internalType": "address[]",
                    "name": "",
                    "type": "address[]"
                },
                {
                    "internalType": "uint256[]",
                    "name": "",
                    "type": "uint256[]"
                }
            ],
            "stateMutability": "view",
            "type": "function"
        },
        {
            "inputs": [
                {
                    "internalType": "address",
                    "name": "_owner",
                    "type": "address"
                },
                {
                    "internalType": "uint256",
                    "name": "_targetAmount",
                    "type": "uint256"
                },
                {
                    "internalType": "uint256",
                    "name": "_deadlineTimestamp",
                    "type": "uint256"
                }
            ],
            "name": "initialize",
            "outputs": [],
            "stateMutability": "nonpayable",
            "type": "function"
        },
        {
            "inputs": [],
            "name": "isDreamEnded",
            "outputs": [
                {
                    "internalType": "bool",
                    "name": "",
                    "type": "bool"
                }
            ],
            "stateMutability": "view",
            "type": "function"
        },
        {
            "inputs": [],
            "name": "isDreamFunded",
            "outputs": [
                {
                    "internalType": "bool",
                    "name": "",
                    "type": "bool"
                }
            ],
            "stateMutability": "view",
            "type": "function"
        },
        {
            "inputs": [],
            "name": "isInitialized",
            "outputs": [
                {
                    "internalType": "bool",
                    "name": "",
                    "type": "bool"
                }
            ],
            "stateMutability": "view",
            "type": "function"
        },
        {
            "inputs": [],
            "name": "isWithdrawn",
            "outputs": [
                {
                    "internalType": "bool",
                    "name": "",
                    "type": "bool"
                }
            ],
            "stateMutability": "view",
            "type": "function"
        },
        {
            "inputs": [],
            "name": "minFundingAmount",
            "outputs": [
                {
                    "internalType": "uint256",
                    "name": "",
                    "type": "uint256"
                }
            ],
            "stateMutability": "view",
            "type": "function"
        },
        {
            "inputs": [],
            "name": "owner",
            "outputs": [
                {
                    "internalType": "address",
                    "name": "",
                    "type": "address"
                }
            ],
            "stateMutability": "view",
            "type": "function"
        },
        {
            "inputs": [],
            "name": "refund",
            "outputs": [],
            "stateMutability": "nonpayable",
            "type": "function"
        },
        {
            "inputs": [
                {
                    "internalType": "uint256",
                    "name": "_minFundingAmount",
                    "type": "uint256"
                }
            ],
            "name": "setMinFundingAmount",
            "outputs": [],
            "stateMutability": "nonpayable",
            "type": "function"
        },
        {
            "inputs": [],
            "name": "targetAmount",
            "outputs": [
                {
                    "internalType": "uint256",
                    "name": "",
                    "type": "uint256"
                }
            ],
            "stateMutability": "view",
            "type": "function"
        },
        {
            "inputs": [],
            "name": "withdraw",
            "outputs": [],
            "stateMutability": "nonpayable",
            "type": "function"
        },
        {
            "stateMutability": "payable",
            "type": "receive"
        }
    ],
    "bytecode": "0x608060405234801561001057600080fd5b50611795806100206000396000f3fe6080604052600436106101235760003560e01c8063c791316e116100a0578063de8551ce11610064578063de8551ce14610396578063e5eece80146103d3578063ea63a044146103fc578063f6d8414f14610427578063f851a4401461045257610132565b8063c791316e146102ac578063c97c346e146102d7578063d321fe2914610303578063d9ce81401461032e578063dc0d3dff1461035957610132565b8063590e1ae3116100e7578063590e1ae31461020c5780637a1ac61e146102235780638da5cb5b1461024c578063953b8fb814610277578063b60d4288146102a257610132565b80631606825414610137578063392e53cd146101625780633ccfd60b1461018d5780634099d033146101a457806344aa5700146101e157610132565b366101325761013061047d565b005b600080fd5b34801561014357600080fd5b5061014c610618565b6040516101599190611257565b60405180910390f35b34801561016e57600080fd5b50610177610624565b6040516101849190611257565b60405180910390f35b34801561019957600080fd5b506101a2610637565b005b3480156101b057600080fd5b506101cb60048036038101906101c691906112d5565b610813565b6040516101d8919061131b565b60405180910390f35b3480156101ed57600080fd5b506101f661082b565b6040516102039190611257565b60405180910390f35b34801561021857600080fd5b5061022161083e565b005b34801561022f57600080fd5b5061024a60048036038101906102459190611362565b610a0e565b005b34801561025857600080fd5b50610261610c00565b60405161026e91906113c4565b60405180910390f35b34801561028357600080fd5b5061028c610c26565b604051610299919061131b565b60405180910390f35b6102aa61047d565b005b3480156102b857600080fd5b506102c1610c2c565b6040516102ce919061131b565b60405180910390f35b3480156102e357600080fd5b506102ec610c32565b6040516102fa92919061155b565b60405180910390f35b34801561030f57600080fd5b50610318610dd6565b604051610325919061131b565b60405180910390f35b34801561033a57600080fd5b50610343610dde565b6040516103509190611257565b60405180910390f35b34801561036557600080fd5b50610380600480360381019061037b9190611592565b610dea565b60405161038d91906113c4565b60405180910390f35b3480156103a257600080fd5b506103bd60048036038101906103b891906112d5565b610e29565b6040516103ca919061131b565b60405180910390f35b3480156103df57600080fd5b506103fa60048036038101906103f59190611592565b610e72565b005b34801561040857600080fd5b50610411610f3c565b60405161041e91906115bf565b60405180910390f35b34801561043357600080fd5b5061043c610fca565b604051610449919061131b565b60405180910390f35b34801561045e57600080fd5b50610467610fd0565b60405161047491906113c4565b60405180910390f35b6001544211156104b9576040517fdd4225c100000000000000000000000000000000000000000000000000000000815260040160405180910390fd5b6002543410156104f5576040517f822a659700000000000000000000000000000000000000000000000000000000815260040160405180910390fd5b600360029054906101000a900473ffffffffffffffffffffffffffffffffffffffff1673ffffffffffffffffffffffffffffffffffffffff163373ffffffffffffffffffffffffffffffffffffffff160361057c576040517f3b78c32000000000000000000000000000000000000000000000000000000000815260040160405180910390fd5b34600660003373ffffffffffffffffffffffffffffffffffffffff1673ffffffffffffffffffffffffffffffffffffffff16815260200190815260200160002060008282546105cb9190611610565b925050819055506105dd600533610ff6565b7f5612f4f3db8c9ba7c03733c5262e76bd369d4506c0fcc2d447830f01df8b9701333460405161060e929190611644565b60405180910390a1565b60008054471015905090565b600360009054906101000a900460ff1681565b600360029054906101000a900473ffffffffffffffffffffffffffffffffffffffff1673ffffffffffffffffffffffffffffffffffffffff163373ffffffffffffffffffffffffffffffffffffffff16146106be576040517fee90c46800000000000000000000000000000000000000000000000000000000815260040160405180910390fd5b60015442116106f9576040517fc657ce9c00000000000000000000000000000000000000000000000000000000815260040160405180910390fd5b600360019054906101000a900460ff1615610740576040517f6507689f00000000000000000000000000000000000000000000000000000000815260040160405180910390fd5b610748610618565b61077e576040517f2e45de4100000000000000000000000000000000000000000000000000000000815260040160405180910390fd5b6107866110f0565b5060004790506001600360016101000a81548160ff021916908315150217905550600360029054906101000a900473ffffffffffffffffffffffffffffffffffffffff1673ffffffffffffffffffffffffffffffffffffffff166108fc829081150290604051600060405180830381858888f1935050505015801561080f573d6000803e3d6000fd5b5050565b60066020528060005260406000206000915090505481565b600360019054906101000a900460ff1681565b6001544211610879576040517fc657ce9c00000000000000000000000000000000000000000000000000000000815260040160405180910390fd5b6000600660003373ffffffffffffffffffffffffffffffffffffffff1673ffffffffffffffffffffffffffffffffffffffff1681526020019081526020016000205414806108cb57506108ca610618565b5b15610902576040517ff76aef6500000000000000000000000000000000000000000000000000000000815260040160405180910390fd5b6000600660003373ffffffffffffffffffffffffffffffffffffffff1673ffffffffffffffffffffffffffffffffffffffff1681526020019081526020016000205490506000600660003373ffffffffffffffffffffffffffffffffffffffff1673ffffffffffffffffffffffffffffffffffffffff168152602001908152602001600020819055503373ffffffffffffffffffffffffffffffffffffffff166108fc829081150290604051600060405180830381858888f193505050501580156109d1573d6000803e3d6000fd5b507fa2312837454a91ed2757d3153e8a2a1be98a24d9402969e78f4f11315bd70d353382604051610a03929190611644565b60405180910390a150565b600360009054906101000a900460ff1615610a55576040517fee90c46800000000000000000000000000000000000000000000000000000000815260040160405180910390fd5b3373ffffffffffffffffffffffffffffffffffffffff168373ffffffffffffffffffffffffffffffffffffffff1603610aba576040517fee90c46800000000000000000000000000000000000000000000000000000000815260040160405180910390fd5b60008203610af4576040517f9af6701600000000000000000000000000000000000000000000000000000000815260040160405180910390fd5b428111610b2d576040517fec5cfe2d00000000000000000000000000000000000000000000000000000000815260040160405180910390fd5b33600460006101000a81548173ffffffffffffffffffffffffffffffffffffffff021916908373ffffffffffffffffffffffffffffffffffffffff16021790555082600360026101000a81548173ffffffffffffffffffffffffffffffffffffffff021916908373ffffffffffffffffffffffffffffffffffffffff160217905550816000819055508060018190555060016002819055506001600360006101000a81548160ff0219169083151502179055506000600360016101000a81548160ff021916908315150217905550505050565b600360029054906101000a900473ffffffffffffffffffffffffffffffffffffffff1681565b60005481565b60025481565b606080600060058054905067ffffffffffffffff811115610c5657610c5561166d565b5b604051908082528060200260200182016040528015610c845781602001602082028036833780820191505090505b50905060005b600580549050811015610d41576006600060058381548110610caf57610cae61169c565b5b9060005260206000200160009054906101000a900473ffffffffffffffffffffffffffffffffffffffff1673ffffffffffffffffffffffffffffffffffffffff1673ffffffffffffffffffffffffffffffffffffffff16815260200190815260200160002054828281518110610d2857610d2761169c565b5b6020026020010181815250508080600101915050610c8a565b5060058181805480602002602001604051908101604052809291908181526020018280548015610dc657602002820191906000526020600020905b8160009054906101000a900473ffffffffffffffffffffffffffffffffffffffff1673ffffffffffffffffffffffffffffffffffffffff1681526020019060010190808311610d7c575b5050505050915092509250509091565b600047905090565b60006001544211905090565b60058181548110610dfa57600080fd5b906000526020600020016000915054906101000a900473ffffffffffffffffffffffffffffffffffffffff1681565b6000600660008373ffffffffffffffffffffffffffffffffffffffff1673ffffffffffffffffffffffffffffffffffffffff168152602001908152602001600020549050919050565b600360029054906101000a900473ffffffffffffffffffffffffffffffffffffffff1673ffffffffffffffffffffffffffffffffffffffff163373ffffffffffffffffffffffffffffffffffffffff1614610ef9576040517fee90c46800000000000000000000000000000000000000000000000000000000815260040160405180910390fd5b806002819055507f3929c16719de84c2e25e1a6bb814b5275a75ff8674d0d7b91c93173a47770882600254604051610f31919061131b565b60405180910390a150565b60606005805480602002602001604051908101604052809291908181526020018280548015610fc057602002820191906000526020600020905b8160009054906101000a900473ffffffffffffffffffffffffffffffffffffffff1673ffffffffffffffffffffffffffffffffffffffff1681526020019060010190808311610f76575b5050505050905090565b60015481565b600460009054906101000a900473ffffffffffffffffffffffffffffffffffffffff1681565b6110858280548060200260200160405190810160405280929190818152602001828054801561107a57602002820191906000526020600020905b8160009054906101000a900473ffffffffffffffffffffffffffffffffffffffff1673ffffffffffffffffffffffffffffffffffffffff1681526020019060010190808311611030575b505050505082611171565b6110ec5781819080600181540180825580915050600190039060005260206000200160009091909190916101000a81548173ffffffffffffffffffffffffffffffffffffffff021916908373ffffffffffffffffffffffffffffffffffffffff1602179055505b5050565b6000806110ff476000546111f2565b9050600460009054906101000a900473ffffffffffffffffffffffffffffffffffffffff1673ffffffffffffffffffffffffffffffffffffffff166108fc829081150290604051600060405180830381858888f19350505050158015611169573d6000803e3d6000fd5b508091505090565b600080600090505b83518110156111e6578273ffffffffffffffffffffffffffffffffffffffff168482815181106111ac576111ab61169c565b5b602002602001015173ffffffffffffffffffffffffffffffffffffffff16036111d95760019150506111ec565b8080600101915050611179565b50600090505b92915050565b600080828461120191906116cb565b90506000606484611212919061172e565b90506000603283611223919061172e565b905080826112319190611610565b935050505092915050565b60008115159050919050565b6112518161123c565b82525050565b600060208201905061126c6000830184611248565b92915050565b600080fd5b600073ffffffffffffffffffffffffffffffffffffffff82169050919050565b60006112a282611277565b9050919050565b6112b281611297565b81146112bd57600080fd5b50565b6000813590506112cf816112a9565b92915050565b6000602082840312156112eb576112ea611272565b5b60006112f9848285016112c0565b91505092915050565b6000819050919050565b61131581611302565b82525050565b6000602082019050611330600083018461130c565b92915050565b61133f81611302565b811461134a57600080fd5b50565b60008135905061135c81611336565b92915050565b60008060006060848603121561137b5761137a611272565b5b6000611389868287016112c0565b935050602061139a8682870161134d565b92505060406113ab8682870161134d565b9150509250925092565b6113be81611297565b82525050565b60006020820190506113d960008301846113b5565b92915050565b600081519050919050565b600082825260208201905092915050565b6000819050602082019050919050565b61141481611297565b82525050565b6000611426838361140b565b60208301905092915050565b6000602082019050919050565b600061144a826113df565b61145481856113ea565b935061145f836113fb565b8060005b83811015611490578151611477888261141a565b975061148283611432565b925050600181019050611463565b5085935050505092915050565b600081519050919050565b600082825260208201905092915050565b6000819050602082019050919050565b6114d281611302565b82525050565b60006114e483836114c9565b60208301905092915050565b6000602082019050919050565b60006115088261149d565b61151281856114a8565b935061151d836114b9565b8060005b8381101561154e57815161153588826114d8565b9750611540836114f0565b925050600181019050611521565b5085935050505092915050565b60006040820190508181036000830152611575818561143f565b9050818103602083015261158981846114fd565b90509392505050565b6000602082840312156115a8576115a7611272565b5b60006115b68482850161134d565b91505092915050565b600060208201905081810360008301526115d9818461143f565b905092915050565b7f4e487b7100000000000000000000000000000000000000000000000000000000600052601160045260246000fd5b600061161b82611302565b915061162683611302565b925082820190508082111561163e5761163d6115e1565b5b92915050565b600060408201905061165960008301856113b5565b611666602083018461130c565b9392505050565b7f4e487b7100000000000000000000000000000000000000000000000000000000600052604160045260246000fd5b7f4e487b7100000000000000000000000000000000000000000000000000000000600052603260045260246000fd5b60006116d682611302565b91506116e183611302565b92508282039050818111156116f9576116f86115e1565b5b92915050565b7f4e487b7100000000000000000000000000000000000000000000000000000000600052601260045260246000fd5b600061173982611302565b915061174483611302565b925082611754576117536116ff565b5b82820490509291505056fea2646970667358221220d0082573582365551ccd29565a909b9d10fa353993e7af0c761c0dd7a8f400c464736f6c63430008180033",
    "linkReferences": {},
    "deployedLinkReferences": {}
}